:100000000C94AC010C94F3010C94F3010C94F301E7
:100010000C94F3010C94F3010C94F3010C94F30190
:100020000C94F3010C94F3010C94BA190C948E1AED
:100030000C9439140C94F3010C94F3010C94F30117
:100040000C94F3010C94F3010C94F3010C94F30160
:100050000C94F3010C9484140C94F3010C94F301AC
:100060000C94F3010C94F3010C94F3010C94F30140
:100070000C94F3010C94F3010C94F3010C94F30130
:100080000C94F3010C94F3010C94F3010C94F30120
:100090000C94F3010C94F3010C94F3010C94F30110
:1000A0000C94F3010C94F3010C94F3012900140057
:1000B0001A000800150017001C0018000C001200A0
:1000C00013002A002B0004001600070009000A0094
:1000D0000B000D000E000F0033003100E1001D0089
:1000E0001B00060019000500110010003600370043
:1000F0003800E100E0000151000028000000390054
:1001000000002C0000000251E600000035021E0233
:100110001F022002210222022302240225022602BB
:10012000270201002B083A003B003C003D003E0046
:100130003F002D022E022F02300234020100400047
:100140004100420043004400450046084C054A0077
:100150004D0001000100010000000100000001004D
:1001600000000100000001000100000035001E0039
:100170001F0020002100220023002400250026006B
:10018000270001004C003D04520050184E18521830
:100190004F182D002E002F0030003400005C50005E
:1001A00051004F00AA00A900AC00AE00AB004B000C
:1001B0004E000100010001000000010000000100EC
:1001C000000001000000010001000000010001002A
:1001D0000100010001000100010001000100010017
:1001E0000100010001000100010001000100010007
:1001F00001000100010001000100010001000100F7
:1002000001000100010001000100010001000100E6
:1002100001000100010001000000010000000100D8
:100220000000010000000100010000001403630051
:1002300068007200690073007400790034003000B7
:1002400000001603760061006C0064007900640011
:100250006500730075005F000000040309040902D3
:100260003B00020100A0FA090400000103010100A3
:100270000921110100012240000705810308000A3D
:1002800009040100010300000009211101000122FD
:100290006D000705820320000A1201100100000012
:1002A0000869AB868601000102000105010980A1F1
:1002B00001850319012AB700150126B700950175BC
:1002C000108100C0050C0901A101850419012AA0B3
:1002D00002150126A002950175108100C0050109D3
:1002E00006A1018505050719E029E71500250195F7
:1002F00008750181020507190029EF1500250195F0
:10030000F07501810205081901290595057501910E
:1003100002950175039101C005010906A1010507B8
:1003200019E029E71500250195087501810295015D
:10033000750881010507190029FF150026FF0095A2
:1003400006750881000508190129059505750191B3
:1003500002950175039101C011241FBECFEFDAE0B1
:10036000DEBFCDBF04B603FE27C08091620290912C
:100370006302A0916402B09165028730904BA74060
:10038000B04BD1F410926202109263021092640298
:100390001092650214BE84B7877F84BF0FB6F894AD
:1003A000A895809160008861809360001092600041
:1003B0000FBEE0E0F8E3099511E0A0E0B1E0E2EE65
:1003C000F9E302C005900D92A038B107D9F722E0F9
:1003D000A0E8B1E001C01D92A236B207E1F70E9489
:1003E000FC160C94881C0C94000081E0089581E0B8
:1003F00008950C94F70108950C94FB011F93CF937B
:10040000DF9300D000D00F92CDB7DEB749835A8377
:100410006B833091960189819A8131111DC06623C9
:10042000B9F02223A9F00E943311182F682F898177
:100430009A810E94DF1069817A81812F0F900F903D
:100440000F900F900F90DF91CF911F910C94B002FD
:100450000E940B11182FEFCF0E94331169817A810E
:10046000EDCFFC01262F408151816281738184810F
:100470000C94FE01CF93DF93EC0160E00E94310207
:10048000BE01DF91CF910C94FC010E94BB140E942D
:100490007D12811102C00E9421130C94B3040C94AC
:1004A000B60408950E94460C0E9451022FEF84E387
:1004B0009CE0215080409040E1F700C000000C9487
:1004C000A8140F931F93CF93DF93EC0161E00E9478
:1004D00031028C01BE010E94F901882329F1BE017D
:1004E000C8010E945E068823F9F0BE01C8010E947F
:1004F000B0068823C9F0BE01C8010E94D307882333
:1005000099F08A81882339F001158CE5180751F09C
:100510000F3D1C4579F0CE01DF91CF911F910F91D6
:100520000C94F5010E94520280E0DF91CF911F915F
:100530000F9108950E942113F7CF08950C949D0206
:1005400081E008950C94A002CF93C82F0E949E02D0
:100550008C2FCF910C94A20290E080E00895089532
:10056000972F70E02CE0929F600D711D1124FB010C
:1005700090E3899FE00DF11D1124EE0FFF1FE4555C
:10058000FF4F859194910895FC01EE0FFF1FE45DEC
:10059000FD4F859194910895CF93DF930E94B0020F
:1005A0000E94D803EC01811520E5920708F041C0B4
:1005B000811530E4930708F0B4C0803E910518F52A
:1005C000803C910508F09DC0883A910570F4853A09
:1005D000910508F08EC081309105F9F00097E9F09F
:1005E0000497D8F4D0E0C0E018C08F3B9105D0F755
:1005F000C85AD0E0CC0FDD1FC35FDE4F0990D88111
:10060000C02DD4640AC08115904258F4C11581E010
:10061000D80718F4C83ED10528F7CE01DF91CF9155
:100620000895C11590E3D90708F071C0CE019F70FD
:100630006AC0811525E5920758F5811534E59307C1
:1006400008F09EC0811542E5940750F4C11581E57C
:10065000D80708F469C0DC2FCC27C16FD06ADDCF82
:10066000982F969596959E0123703327C115D345F3
:1006700008F077C0C1E0D0E002C0CC0FDD1F2A95A2
:10068000E2F720E2929FC0011124C82BD92B67C04A
:10069000C11589E5D807A8F4C11598E5D90708F070
:1006A00074C0C11526E5D20708F09CCF8C2F0E949C
:1006B0006F04C82FD0E0DC2FCC27CC27DF71D062AD
:1006C000ACCFC1153AE5D30708F464C0CE0190560B
:1006D0008115904208F086CF8D2F8F710E946F0494
:1006E00090E0982F882788279F719C012C2BE90187
:1006F000E6CFC55AD0E0C55CDE4FC881D0E0D064FB
:100700008CCF805C91090E94C402EC0186CFCE019F
:100710009927D3FF03C0EC01D86C7FCFEC01D06CDC
:100720007CCFDF70D06A79CFCE01E4E096958795D3
:10073000EA95E1F783702C2F26952695237090E299
:10074000299F90011124382B8C2F8370C1E0D0E0B9
:1007500002C0CC0FDD1F8A95E2F7C22BD32BDC68D9
:100760005CCFC1E0D0E002C0CC0FDD1F2A95E2F7DC
:1007700030E2939FC0011124C82BD92BDA684DCFEA
:10078000D82FCC27C46FD06A48CFDC2FCC27C06FBE
:10079000D06A43CF8C2F8F700E946F0434E0D695BF
:1007A000C7953A95E1F7CF709C2FEC01D06935CF12
:1007B00082389105B1F1B0F48133910509F475C027
:1007C00048F48932910509F469C08A32910509F427
:1007D00073C008958533910509F459C08933910593
:1007E00001F10895833E9105A9F138F4803E910509
:1007F000F9F0823E910549F10895863E9105A9F1EF
:10080000873E9105C9F1843E910519F52091540266
:1008100021FF1FC08091530284FD14C087EE90E039
:100820000895209153022370A1F080EE90E0089586
:100830002091530220FD47C03091540230FF09C07F
:1008400024FF44C090E080E004C02091530222FDC8
:10085000F7CF08952091530222FD3BC030915402FE
:1008600030FDE3CF24FFF5CFEDCF2091530223FFDE
:10087000F0CF24FDE7CFD2CF2091530223FD2CC02F
:100880003091540231FFEECF84EE90E00895209134
:10089000530225FFDECF89E290E0089520915302B4
:1008A00025FFD7CF85E390E008952091530226FFDE
:1008B000D0CF8AE290E008952091530226FFC9CF5D
:1008C00081E390E0089589E390E0089583EE90E05D
:1008D000089582EE90E0089586EE90E0089590915C
:1008E000530292FF06C0282F28712830F9F4877F21
:1008F000846093FF06C0282F28712831F1F4877E89
:1009000084612091540220FF06C0382F387138309E
:10091000D9F4877F816021FF06C0282F28712831F4
:10092000D1F4877E816194FD877E0895282F2471FC
:100930002430F9F68B7F8860DCCF282F2471243196
:1009400001F78B7E8861DDCF382F3171313019F797
:100950008E7F8860E0CF282F2171213121F78E7E94
:100960008861E1CF08950C94B20408950C94B50405
:10097000E82FF0E0EE0FFF1FE95BFD4F80819181D2
:100980000895089580EA8A95F1F70895F894E82F7C
:10099000E295EF70F0E031A1282F2F7081E090E018
:1009A00001C0880F2A95EAF7982F9095932391A379
:1009B00092A1892B82A378940895CF93DF9381E34A
:1009C0000E94C60483E30E94C60482E30E94C60418
:1009D00086E30E94C604CEE3D1E089910E94C6045A
:1009E00081E0CA34D807C9F71092400210923F0242
:1009F0001092480210924702109242021092410255
:100A000010924A021092490210924402109243023C
:100A100010924C0210924B02109246021092450224
:100A200010924E0210924D0284E00E949905DF91CF
:100A3000CF910C944502AF92BF92DF92EF92FF925A
:100A40000F931F93CF93DF93CAE4D1E00FE312E03B
:100A5000D12CEE24E394F12C8991F894E82FE295BF
:100A6000EF70F0E021A18F70A70102C0440F551F65
:100A70008A95E2F7CA01922F982B91A392A18095B3
:100A8000892382A378940E94C204EEE3F1E030E06F
:100A900020E0B12CA12C4191A42FA295AF70B0E021
:100AA00090968C9190E04F7002C0959587954A95ED
:100AB000E2F780FD39C0C701022E02C0880F991FDE
:100AC0000A94E2F7A82AB92A2F5F3F4F2C3031054C
:100AD00011F7FE01319780810E94C604F8018081E0
:100AE0009181A816B90619F1B182A08281E0D82AB5
:100AF0000E5F1F4FF1E0CE34DF0709F0ADCF2D2D93
:100B000044E067E472E08FE392E00E949A050E945D
:100B10004F028D2DDF91CF911F910F91FF90EF909C
:100B2000DF90BF90AF90089590E080E0CBCF80E061
:100B3000DECF0895FF920F931F93CF93DF93F82E8C
:100B4000092F162FD72FC42F222349F081E080933D
:100B500082010E94691490938101809380018091A9
:100B600082018823A1F080918001909181010E94EF
:100B70007514069760F0EF2DF02FA12FBD2F90E098
:100B800080E0D0E08C179D0744F010928201DF9145
:100B9000CF911F910F91FF900895219131912D9345
:100BA0003D930196EFCFAF92BF92CF92DF92EF923B
:100BB000FF920F931F93CF93DF937C015B01C42FB0
:100BC000D22FFC0182818823F9F0409385010E9495
:100BD0006914909384018093830180E28C0F8830A4
:100BE00008F061C0C77081E001C0880FCA95EAF7BC
:100BF000DF91CF911F910F91FF90EF90DF90CF90F9
:100C0000BF90AF900C94D90910918501141340C086
:100C100080918301909184010E9475146C01B70149
:100C2000C5010E94BC0EC816D90690F5C0E2CD0FD2
:100C30001D17B9F080E2810F883040F4177081E011
:100C400001C0880F1A95EAF70E94E009C83048F4FD
:100C500081E09D2F977001C0880F9A95EAF70E9456
:100C6000D909802F0E94C609C830E8F4D77081E006
:100C700001C0880FDA95EAF7DF91CF911F910F91AC
:100C8000FF90EF90DF90CF90BF90AF900C94E00971
:100C900080E28C0F883038F4C77081E001C0880F83
:100CA000CA95EAF7E9CFDF91CF911F910F91FF909D
:100CB000EF90DF90CF90BF90AF9008950F939C017D
:100CC000CB01243F4CE5340759F1A8F4293DFCE55C
:100CD0003F0701F12A3D4CE53407D1F1283D3C4561
:100CE00091F406E221EE41EE68ED7CE50E94D30529
:100CF00080E00F910895263FFCE53F07E9F0B0F052
:100D0000273F3C45F9F0FC018281882339F110929C
:100D10008501EFCF07E225EE45EE69ED7CE5E6CFF4
:100D200006E221EE40EE64EF7CE5E0CF07E225EE3F
:100D300044EE65EF7CE5DACF06E221EE42EE66EFA7
:100D40007CE5D4CF07E225EE46EE67EF7CE5CECF1B
:100D500008E221E045EE6AED7CE5C8CF81E0C9CF2D
:100D6000CF93DF93EC01FB018281882309F419C141
:100D7000C230FCE5DF07C0F1C6319CE5D90730F091
:100D80009E012B5F3C452930310570F50E94901281
:100D90009093540280935302C031ECE5DE0709F4CE
:100DA000CFC008F05BC0C8308CE5D80709F4B6C0E6
:100DB00088F5C430ECE5DE0709F4A8C0C0F4C23001
:100DC0008CE5D80709F49CC0809153028260C3303F
:100DD000DC4509F498C080915302909154020E941E
:100DE0009E120E94460C80E0DF91CF910895809181
:100DF00053028061C630ECE5DE0709F484C08091BF
:100E000053028860C730DC4508F47DC080915302EE
:100E1000806279C0CC308CE5D80709F489C070F4C1
:100E2000809153028C60CA30ECE5DE0709F46BC098
:100E300008F478C0809153028E7F65C0CE308CE577
:100E4000D80709F479C0809153028B7FCF30DC45FD
:100E500008F459C0809153028F7E55C0CC3FECE519
:100E6000DE0709F457C030F5C3318CE5D80709F423
:100E70006FC078F4C131ECE5DE0709F465C0C2311A
:100E8000DC4509F0A8CF0E94460C809153028F7771
:100E90003AC0C5318CE5D80709F462C008F476C0C1
:100EA000809154028160CB3FDC4509F094CF809360
:100EB000540291CFC115FDE5DF0709F44DC088F458
:100EC000809154028D7FCE3F9CE5D90781F38091BC
:100ED00054028E7FCF3FDC4550F3809154028360F3
:100EE000E6CFC230FDE5DF0709F459C008F444C07D
:100EF00080E0C330DD4509F06ECF0E9423136BCF35
:100F00008091530281608093530265CF8091530298
:100F10008460F9CF809154028260C9CF80915302DE
:100F20008064F1CF0E94460C809153028068EBCF21
:100F3000809153028D7FE7CF80915302877FE3CF6B
:100F4000809153028F7DDFCF809153028F7BDBCF67
:100F500080915302837FD7CF809154028C7FA7CF9B
:100F60008091530282FB992790F921E0922790FB10
:100F700082F990FB83F9C7CF80915402982F909506
:100F800091708E7F892B90FB81F991CF0E94460C46
:100F900090915302892F97FB87F98058B4CF81E055
:100FA000ACCF81E021CFCF93DF93EB0186319C451D
:100FB00011F50E94C8119A81992399F08A7A91E0DB
:100FC00009F490E090938601811109C089E20E94A2
:100FD000A3110E94141280E0DF91CF91089585E360
:100FE000F6CF80918601811104C089E20E94AA1186
:100FF000F0CF85E3FBCF81E0EFCF90938C0180931E
:101000008B010895E0918B01F0918C01309721F0D4
:101010000190F081E02D099480E00895E0918B012A
:10102000F0918C01309799F020910C01222359F016
:101030002091530227FF07C0DC012C9111962C93BD
:10104000119725E02C930280F381E02D09940895F7
:101050002091890130918A012817390771F0909306
:101060008A0180938901E0918B01F0918C01309786
:1010700021F00680F781E02D0994089520918701E1
:10108000309188012817390771F090938801809377
:101090008701E0918B01F0918C01309721F0008461
:1010A000F185E02D0994089585B7806885BF85B7DF
:1010B000806885BF0895089508950C945B0808958D
:1010C0000C945F080E9454080E945C080C945D0810
:1010D00081E008950C946808089508950E946014B2
:1010E0000E94DD040E94D2140C9460089F92AF927B
:1010F000BF92CF92DF92EF92FF920F931F93CF9305
:10110000DF93CDB7DEB72A970FB6F894DEBF0FBED8
:10111000CDBF0E946C080E946D080E941B050E94B2
:101120006A08882309F46DC05EE8A52E51E0B52E4B
:1011300010E000E0902E802F0E94B8046C01F501B1
:10114000E190F1905F01E816F90609F454C080912E
:101150001A0281FD0E94C10497012C253D2580E0E3
:10116000EE24E394F12CA9014E215F21452BE9F1F6
:101170008E839F82CE20DF2081E0CD2809F480E09D
:1011800088870E9469148160782F9A8789874E81A9
:101190005F8168858A850E942409000F111FF8016C
:1011A000E257FE4F80819181E826F926F182E082A4
:1011B0000E94020890918D018917A1F10E940208F6
:1011C00080938D012A960FB6F894DEBF0FBECDBF77
:1011D000DF91CF911F910F91FF90EF90DF90CF9013
:1011E000BF90AF909F900C94A4028F5FEE0CFF1CF9
:1011F0008C3009F0B8CF0F5F1F4F0430110509F094
:1012000099CF8FEF89838A831B820E946914816042
:10121000782F9D838C8349815A816B818D810E94B7
:101220002409C6CF2A960FB6F894DEBF0FBECDBFF5
:10123000DF91CF911F910F91FF90EF90DF90CF90B2
:10124000BF90AF909F900895CF93DF93CDB7DEB757
:101250002B970FB6F894DEBF0FBECDBF4F835887D4
:1012600069877A878B871E821D8285E0FE0137960B
:10127000DE01119601900D928A95E1F749815A811C
:101280006B817C818D819E812B960FB6F894DEBF99
:101290000FBECDBFDF91CF910C94BF0EFC018081BA
:1012A00091810C947511CF93C82F882309F444C001
:1012B0008CEF8C0F813AC8F48C2F0E94701581112D
:1012C0003BC06C2F80910001909101010E943C1362
:1012D000882329F08C2F0E94AA110E9414128C2FAF
:1012E0000E94A311CF910C94141280E28C0F8830CD
:1012F00048F4C77081E001C0880FCA95EAF70E94E0
:10130000CB11F0CFEBE5EC0FE33040F4F0E0E45824
:10131000FE4F808190E0CF910C942808C85AC731C5
:1013200058F4EC2FF0E0EE0FFF1FE25BFE4F8081E0
:101330009181CF910C943E08CF910895882329F193
:101340009CEF980F913A20F40E94AA110C94141269
:1013500090E2980F983050F4877091E001C0990F97
:101360008A95EAF7892F0E94D111F0CF9BE5980F5B
:10137000933020F490E080E00C942808885A87315C
:1013800020F490E080E00C943E080895CF93C82F9D
:101390000E945309C93349F42FEF87EE93E021509F
:1013A00080409040E1F700C000008C2FCF910C945A
:1013B0009E09882321F00E94CB110C9414120895E9
:1013C000882321F00E94D1110C9414120895BF9229
:1013D000CF92DF92EF92FF920F931F93CF93DF9301
:1013E0006C01D62FC72FFC01058102950F70128169
:1013F00011110E94E8110E94C111E82E882391F07A
:101400001123D1F08C2F807F803421F080E28D0F6A
:10141000883090F082E00E945F120E94C11191E03A
:10142000E82EE926BC2EB2949FE0B922EB2DF0E025
:10143000E657F34E0C94401CE12CF4CF0C2F0F70A8
:10144000C07F11F00295007F1123A9F0002359F00D
:1014500080E28D0F883010F0D11109C0802F0E94DA
:10146000CB110E9414128D2F0E94530914C0802F9B
:101470000E94DB11F6CF8D2F0E949E09002359F0A8
:1014800080E28D0F883010F0D1112CC0802F0E9487
:10149000D1110E9414122B2D2850330B243031050A
:1014A00020F40E9402080E94A402EE2009F493C1D5
:1014B0000E94BD1180FD8FC1F60112820E94B711FA
:1014C0000E944310C6010E940C0C0E94B711DF91CC
:1014D000CF911F910F91FF90EF90DF90CF90BF9031
:1014E0000C946410802F0E94E111D3CFFC2FFF7069
:1014F000FF2EC07FC03219F0F29480EFF822DD2376
:1015000069F0D13049F1112391F1002351F1F60135
:10151000858180FFA8CF8F70858323C0112381F040
:10152000011106C00E94FB118F290E94D909B3CF77
:101530000130C1F70E94FB118F290E940112ABCF2D
:10154000011106C00E940A128F2D0E94E009A3CF4C
:10155000013009F4A0CFF6CF112329F0063008F0AE
:101560009ACF8F2DE2CF053008F095CFEDCF002335
:1015700059F3D93349F4FFEF27EE33E0F15020401F
:101580003040E1F700C000008D2F0E949E0983CFFC
:101590008C2F86958695837069F0813009F07BCF1A
:1015A0008D2F9C2F9370111102C090E080E00E945B
:1015B0003E0871CF8D2F9C2F9370111102C090E0C7
:1015C00080E00E94280867CF8C2F837009F041C00B
:1015D000111161CF4D2F429546954770440F440F2E
:1015E0000D2F0F7010E030E020E0042E04C0000F3B
:1015F000111F221F331F0A94D2F760E070E0CB0165
:10160000D4FF0FC06FE070E080E090E004C0660F90
:10161000771F881F991F4A95D2F76095709580951E
:101620009095C695C695C370602B712B822B932B1A
:10163000C23049F058F4C13019F00E94F50F2BCF99
:101640000E94E30F28CF0E94071025CF0E94E10FD0
:1016500022CF8695112311F08C2F8170882309F4F5
:101660001ACF4D2F429546954770440F440F0D2FCA
:101670000F7010E030E020E0042E04C0000F111FB6
:10168000221F331F0A94D2F760E070E0CB01D4FF31
:101690000FC06FE070E080E090E004C0660F771F3D
:1016A000881F991F4A95D2F76095709580959095FF
:1016B000C695C695C370602B712B822B932BC230BD
:1016C00049F058F4C13019F00E94BA10E4CE0E94DB
:1016D000A810E1CE0E94CC10DECE0E941D10DBCE01
:1016E000CF70112329F08C2F0E9443108D2F1DCF16
:1016F0008D2F0E94E0098C2F0E946410CCCED23F27
:1017000089F160F4D03FC9F0D13F29F1112309F4E8
:1017100042C00111A8CE8C2F8F7121C0D33F39F167
:10172000D43FA1F7112369F1CF718C2F0E94431090
:1017300063E08C2F0E944A12AECE112341F0053097
:1017400008F0A9CE8C2F8F710E948710A4CE06308E
:1017500008F0A1CEF7CF8C2F8F71112369F20E9470
:10176000431099CE8C2F8F711123C9F3C5CF11234C
:1017700029F08C2F8F710E942E108DCE0E9429107F
:101780008ACE81E00E945F12023008F484CE82E0AB
:101790000E945F1280CE002359F0D93309F0F4CEB5
:1017A0008FEF97EEE3E081509040E040E1F7EACE22
:1017B0008C2F8F71A1CF4C2F4F706D2FC6010E94BF
:1017C000AC020E94590F67CE4C2F4F706D2FC6018F
:1017D0000E94AF0260CEDF91CF911F910F91FF90D9
:1017E000EF90DF90CF90BF9008950F931F93CF930A
:1017F000DF93EC01688179818A810E947F118C01DD
:101800000E94DE100E94E00FB801CE01DF91CF915F
:101810001F910F910C94E709CF93DF93EC018B811B
:101820009C81892B29F08881998189238F3F59F4E4
:10183000DF91CF910895CE010E94F50BCE01DF918B
:10184000CF910C943A02CE010E9461028111F3CF34
:101850000E94C111882361F38A81882349F382E0C1
:10186000DF91CF910C945F120E94E8110E94F81151
:101870000E94141290E080E00E94280890E080E02E
:101880000C943E080E94B1110C94340C0E94D811A3
:101890000C94420CE92FE295EF70E250EE3070F4B8
:1018A000F0E0E656F34E0C94401C803F19F020F413
:1018B000883E20F481E00895843FE1F380E00895BC
:1018C000883EC0F3813FD1F7F5CF93FB882780F99D
:1018D00008950E9475110C944A0CCF93DF9300D0A9
:1018E00000D00F92CDB7DEB70F900F900F900F90F2
:1018F0000F90DF91CF910895CF93DF9300D000D068
:1019000000D0CDB7DEB726960FB6F894DEBF0FBE77
:10191000CDBFDF91CF9108951F93CF93DF93C091F7
:10192000970116E0809198018C1304C0DF91CF914C
:101930001F910895D0E01C9FF0011D9FF00D112410
:10194000E756FE4F40815181628173818481958188
:101950000E947C0C2196C770E5CF4091C90150913F
:10196000CA016091CB017091CC018091CD01909121
:10197000CE010C947C0C1F93CF93DF938091CE010A
:10198000807FA9F48091CB01882389F08091970111
:10199000C09198016091C9017091CA01A091CC01D8
:1019A000B091CD01D62FD72316E0C81304C0DF9124
:1019B000CF911F91089590E0109711F0DF3F19F437
:1019C00001968770F2CF189F9001199F300D112456
:1019D000F901E756FE4F41814713F2CF408146138C
:1019E000EFCF42814111ECCF438154814A1B5B0B05
:1019F000483C510528F78091CE018F70806180931B
:101A0000CE01F901E256FE4F80818F7080618083A4
:101A100089EC91E00E940C0CDF91CF911F910C9406
:101A20008C0CAF92BF92CF92DF92EF92FF920F9306
:101A30001F93CF93DF93CDB7DEB761970FB6F894BE
:101A4000DEBF0FBECDBF8C0185E0F801DE011D9623
:101A500001900D928A95E1F7F80140815181E28071
:101A600089ECC82E81E0D82E6091CC017091CD0117
:101A70006115710509F461C19091C9012091CA01F4
:101A8000892F82238F3F09F458C1A380B480F0903E
:101A9000CB01F501E61BF70BFF2009F4FCC0809198
:101AA000CE01382F307FE83CF10508F0B2C031118B
:101AB00079C0FE2C251323C0941321C0E1101FC050
:101AC0008F7080618093CE010E94AD0CC6010E9490
:101AD0000C0C8091CE01F80185838F2D61960FB695
:101AE000F894DEBF0FBECDBFDF91CF911F910F9154
:101AF000FF90EF90DF90CF90BF90AF900895AB280C
:101B000029F0842F85238F3F09F033C180E0F82F1F
:101B1000F170DF2E80FF3CC08091970120919801E9
:101B200036E0821315C04D875E878D859E850E94A5
:101B30007511292F22952F702230F0F0243018F5DE
:101B40009F70F1F0F8019581907FD1F4D12C1EC0E7
:101B500090E0389FF001399FF00D1124E756FE4FB9
:101B60006181651306C06081641303C062816E11D8
:101B70000FC001968770D5CF9F7011F0882331F385
:101B8000805E883018F3C8010E940C0CFD2CA5CF94
:101B9000EE2009F4A2CF8091CE0181608093CE0126
:101BA000F12C9BCF251306C0941304C0F801EE203E
:101BB00009F48DC04D875E878D859E850E94690CD6
:101BC000882319F1EE2009F18091CE01803270F066
:101BD0002091C9013091CA0138872F831986BB86AD
:101BE000AA868C87CE0107960E940C0C86E0F8012D
:101BF000A9ECB1E001900D928A95E1F70E94BB0C2F
:101C00000E94AD0CFF24F39468CFC8010E940C0C15
:101C1000F9CF311113C07A2DB98AA88A6E2D89891E
:101C20000E946D0C89EC91E00E940C0C86E0F6019C
:101C300011928A95E9F70E94AD0CB2CF25130FC01F
:101C400094130DC0E1100BC0F8018583C8010E94F8
:101C50000C0C86E0F60111928A95E9F73ECF4D878C
:101C60005E878D859E850E94690C882371F2EE2027
:101C700061F28091CE01803208F4B8CF2091C90181
:101C80003091CA013A8329831B82BD82AC828E8344
:101C9000CE010196A9CFE83CF10508F041C0FE2C29
:101CA000EE2009F4B2CF25132AC0941328C08091E6
:101CB000CE0180FD1BC0982F907FC1F0F801858375
:101CC000903F31F0982F907F905F8F70892B8583A4
:101CD000C8010E940C0C86E0F801A9ECB1E001906B
:101CE0000D928A95E1F70E94AD0CF7CE86E0F801DF
:101CF000A9ECB1E001900D928A95E1F7EECE4D8707
:101D00005E878D859E850E94690C81116FCF8091C1
:101D1000CE0181608093CE01C8010E940C0CDDCE03
:101D20007A2DB98AA88A6E2D89890E946D0C86E069
:101D3000F60111928A95E9F7D6CFEE2009F465CF26
:101D40004D875E878D859E850E94690CF82E8823BD
:101D500009F45BCF86E0F801A9ECB1E001900D92A7
:101D60008A95E1F789EC91E00E944E090E94BB0C34
:101D7000BACF81E08E25CBCE88EC90E008951F93FA
:101D8000CF93DF93CDB7DEB72C970FB6F894DEBFB5
:101D90000FBECDBF4F83588769877A878B879C8713
:101DA000CE0107960E94110D882369F08A859B85D4
:101DB000892B39F04F815885842F85238F3F09F077
:101DC00071C016E05FC086E0FE013796DE01119615
:101DD00001900D928A95E1F78A859B85892B89F37D
:101DE0008F81988589238F3F61F32091980130E09E
:101DF000C9010196877099274091970148171906E4
:101E000071F40E94460C109298011092970186E09E
:101E1000E9ECF1E0DF011D928A95E9F7D2CF96E077
:101E2000929FD001939FB00D1124A756BE4FFE0183
:101E3000319601900D929A95E1F7809398010E9456
:101E40008C0CBFCF819FC001112487569E4F0E94EA
:101E5000110D8823E9F0E09197011E9FF0011124F4
:101E6000E756FE4F40815181628173818481958163
:101E70000E947C0C8091970190E0019687709927D1
:101E80008093970180919701909198018913DACFFF
:101E90002C960FB6F894DEBF0FBECDBFDF91CF9169
:101EA0001F91089569857A858B859C850E947C0C9D
:101EB00088CFEF92FF920F931F93CF93DF938C0104
:101EC000892B81F0F12CEE24E394E8012196F801AE
:101ED0008491843770F4843008F05FC08130B1F0B1
:101EE0008230A1F1DF91CF911F910F91FF90EF9080
:101EF0000895853709F44CC008F43DC09CE7980F5D
:101F0000903780F78F770E949E0949C00E5F1F4F60
:101F1000FE01849190E2980F983060F48770FE2D56
:101F200001C0FF0F8A95EAF78F2F0E94EB110E94E4
:101F3000141202C00E9453098F2D815030F2EFE934
:101F4000FFE03197F1F700C00000F7CF0E5F1F4FA1
:101F5000FE01849190E2980F983050F48770FE2D26
:101F600001C0FF0F8A95EAF78F2F0E94F111DFCF92
:101F70000E949E09E1CF0E5F1F4FFE01C491C15028
:101F8000D8F28FE99FE00197F1F700C00000F7CF8A
:101F90000E5F1F4FFE01F490CFCF0E9453098E01B8
:101FA000CBCF08950C94D10F0E94D20F6093F10112
:101FB0007093F2018093F3019093F4010C94340C2C
:101FC00008950C94D40F0F931F930091F101109179
:101FD000F2012091F3013091F401602B712B822BDF
:101FE000932B1F910F910C94D40F0F931F9300917B
:101FF000F1011091F2012091F3013091F40160237D
:102000007123822393231F910F910C94D40F0F936C
:102010001F930091F1011091F2012091F301309191
:10202000F40160277127822793271F910F910C9449
:10203000D40F0C94D10F0C9419100E941B106093B4
:10204000ED017093EE018093EF019093F0010C94F9
:10205000340C60E070E0CB010C941D100F931F93C3
:1020600041E050E060E070E08A019B0104C0000F95
:10207000111F221F331F8A95D2F7C901B8011F9182
:102080000F910C941D100F931F9341E050E060E0FE
:1020900070E004C0440F551F661F771F8A95D2F762
:1020A0008091ED019091EE01A091EF01B091F001CE
:1020B0008A019B01082B192B2A2B3B2BC901B80144
:1020C0001F910F910C941D100F931F9341E050E04E
:1020D00060E070E004C0440F551F661F771F8A95AB
:1020E000D2F7CB01BA0160957095809590950091DB
:1020F000ED011091EE012091EF013091F00160238C
:102100007123822393231F910F910C941D100F9321
:102110001F9341E050E060E070E004C0440F551FA1
:10212000661F771F8A95D2F78091ED019091EE019D
:10213000A091EF01B091F0018A019B0108271927B6
:102140002A273B27C901B8011F910F910C941D103C
:102150000F931F930091ED011091EE012091EF017B
:102160003091F001602B712B822B932B1F910F91DB
:102170000C941D100F931F930091ED011091EE012F
:102180002091EF013091F00160237123822393238A
:102190001F910F910C941D100F931F930091ED014F
:1021A0001091EE012091EF013091F001602771272D
:1021B000822793271F910F910C941D1008952CE0F6
:1021C000929F800D1124982F977041E001C0440F19
:1021D0009A95EAF786958695869595E0899FF00110
:1021E0001124E153FE4F90E080E070E05191DF0157
:1021F00011979B01082E02C0369527950A94E2F7A5
:10220000217021952527242325272C93019685309D
:10221000910561F708952CE0929F800D1124982F6D
:10222000977086958695869525E0829FF00111240A
:10223000E153FE4F50E040E080E0219130E0092E74
:1022400002C0369527950A94E2F721703327042EB1
:1022500001C0220F0A94EAF7822B4F5F5F4F45308F
:10226000510559F70895BF92CF92DF92EF92FF92F6
:102270000F931F93CF93DF938C01C090ED01D0900B
:10228000EE01E090EF01F090F0018091F10190916A
:10229000F201A091F301B091F401C82AD92AEA2AE7
:1022A000FB2ACFE1D0E0BC2ED701C6010C2E04C022
:1022B000B695A795979587950A94D2F780FD0EC09D
:1022C000219788F7B12C8B2DDF91CF911F910F9122
:1022D000FF90EF90DF90CF90BF900895B8018C2FC2
:1022E0000E94CC02019761F3EECFCF93DF93EC0114
:1022F0000E943311BE01DF91CF910C94CC021F9349
:10230000CF93DF93EB0190919601992331F0CB01AC
:10231000DF91CF911F910C947511882379F0CB0137
:102320000E943311182F682FCE010E94DF10BE01CA
:10233000812FDF91CF911F910C94CC02CB010E9491
:102340000B11182FF4CF682F80910001909101019B
:102350000C94BC13682F80910001909101010C94A2
:10236000C71380910001909101010C94D2138091C8
:10237000F50185958595859508958091F50187707E
:1023800008959091F501977081E009F480E0089537
:1023900080911902089590911902892B8093190256
:1023A00008958095909119029823909319020895A9
:1023B00010921902089590911802892B80931802A7
:1023C000089580959091180298239093180208958B
:1023D00010921802089590911702892B809317028A
:1023E000089580959091170298239093170208956D
:1023F0001092170208958091F601089508950C94A3
:10240000FE119091F601981721F08093F6010C943B
:10241000FF1108958091F601882329F01092F601AA
:1024200080E00C94FF110895E0910001F09101010A
:10243000809119028083E0910001F0910101808177
:1024400090911802892B8083E0910001F0910101A5
:10245000808190911702892B80839091F6019923B6
:1024600081F0E0910001F09101018081892B80834E
:1024700080910001909101010E94281381110E9416
:102480000A1280910001909101010C940E080895A8
:102490000C94471298E0899F90011124622B60935D
:1024A000F5010E9443108091F501859585958595EC
:1024B0000C9448121092F50180E00C94481290910F
:1024C000F501809589238093F501282F277071F4F9
:1024D000282F082E000C330B9217130639F0859520
:1024E000859585950E9464100C945A1208956FEF9B
:1024F0007FEF90E080E00C94721C90E080E00E94FE
:102500004E1C21E08C3E9E4F09F020E0822F089562
:1025100082E090E00C94461C83E090E00C94461C12
:10252000CF9384E090E00E94461CC82F81E290E0A7
:102530000E94461C982F8C2FCF910895CF93C92FBE
:10254000682F84E090E00E94541C6C2F81E290E0A0
:10255000CF910C94541CAB01BC018FE090E00C9423
:10256000661CAB01BC0183E190E00C94661C60E04A
:1025700070E0CB010C94B11260E070E0CB010E94DE
:10258000AB120C94B7126CEE7EEF90E080E00E94EC
:10259000721C60E082E090E00E94541C60E083E0E6
:1025A00090E00E94541C1092F1011092F2011092DE
:1025B000F3011092F40160E084E090E00E94541C6A
:1025C00060E081E290E00E94541C60E085E090E0D1
:1025D0000E94541C60E086E090E00E94541C6FEF63
:1025E00087E090E00E94541C40E050E0BA0188E08F
:1025F00090E00E94661C60E08DE090E00E94541C18
:1026000040E050E0BA0188E190E00E94661C60E082
:1026100087E190E00E94541C40E050E0BA018CE158
:1026200090E00E94661C60E080E290E00E94541CF2
:1026300040E050E0BA0188E190E00E94661C0C94F2
:10264000BC120C94C312682F8EE090E00C94541CC2
:10265000FC01329680910C01882321F08091530275
:102660009EE187FF96E080E0915008F40895219163
:102670002223D1F38F5FF8CF662301F120910C0163
:102680002223F1F02091530227FF1AC0462F4695CE
:10269000469546954E3190F4677021E030E002C0D7
:1026A000220F331F6A95E2F7840F911DFC0182818E
:1026B00090E02823392381E0232B69F480E00895FA
:1026C000FC01329608962191261721F0E817F907A8
:1026D000D1F7F4CF81E008959C01FC0132969FEF81
:1026E00080E04191461751F09F3F19F4411101C01C
:1026F000982F8F5F8630A9F79F3F09F40895290F1F
:10270000311D97FD3A95F90162830895FC013296D7
:1027100008962191261303C0DF0111971C92E81738
:10272000F907B9F70895E62FE695E695E695EE31B7
:1027300068F4E80FF92FF11D677021E030E001C067
:10274000220F6A95EAF78281822B82830895E62F11
:10275000E695E695E695EE3170F4E80FF92FF11D58
:10276000677021E030E001C0220F6A95EAF72095FA
:10277000828128232283089520910C01222329F0AD
:102780002091530227FD0C9493130C946C13209109
:102790000C01222329F02091530227FD0C94A7134A
:1027A0000C948613FC01329680910C01882351F021
:1027B0008091530287FF06C08EE1DF011D928A954A
:1027C000E9F7089586E0F9CF089508950C94E5138C
:1027D0000E94E61380915902843049F110921B0245
:1027E00088E190E020E40FB6F894A895809360000B
:1027F0000FBE2093600080E00E94A4020E94E613B6
:1028000083B7817F846083BF83B7816083BF7894FF
:10281000889583B78E7F83BF0FB6F894A895809173
:102820006000886180936000109260000FBE089580
:102830000895CF930E94E4130E941B050E94181470
:10284000C0E08C2F0E94B804892B31F4CF5FC430D4
:10285000C1F780E0CF91089581E0FCCF08950C94FA
:102860002E140E94460C0E9402080E94A4020C949E
:102870002F141F921FB61F9211248F939F93AF9313
:10288000BF9380911B02811113C080914F029091E0
:102890005002A0915102B09152024196A11DB11D6A
:1028A00080934F0290935002A0935102B093520232
:1028B000BF91AF919F918F911F901FBE1F90189550
:1028C00082E084BD93E095BD9AEF97BD80936E0042
:1028D00008952FB7F89480914F0290915002A091E3
:1028E0005102B09152022FBF08959C014FB7F89446
:1028F00080914F0290915002A0915102B0915202EA
:102900004FBF821B930B089578941F921FB61F929E
:1029100011248F939F93AF93BF9380914F02909117
:102920005002A0915102B09152020196A11DB11D19
:1029300080934F0290935002A0935102B0935202A1
:10294000BF91AF919F918F911F901FBE1F901895BF
:1029500087E797E7909301088093000888E19AE061
:102960000FB6F894A895809360000FBE9093600016
:10297000FFCF0C9477120E941B052FEF86E791E0A2
:10298000215080409040E1F700C000000E941B05EC
:1029900080E00E94B80480FF04C00E94B9140C9427
:1029A000A81408950E947D12811102C00E94211373
:1029B0000E94881280931A020E94901290935402EF
:1029C000809353020E948C12682F70E090E080E0A8
:1029D0000E94E10F6091ED017091EE018091EF0195
:1029E0009091F0010C941B100F931F9341E050E065
:1029F00060E070E08A019B0104C0000F111F221FDC
:102A0000331F8A95D2F7C901B8010E94E10F1F91C7
:102A10000F910C94460CEBEFE80FEF3308F05AC01F
:102A2000F0E0E855F34E0C94401C0E94211381E025
:102A3000089580911A02807F80931A0281E080932A
:102A40001C0208950E945202F2CF90911A02892F1F
:102A50008E7F90FF816080931A0280FDE8CF817F96
:102A600080931A02E4CF90911A02892F8D7F91FFF3
:102A7000826080931A0281FFDACF80911A0281600E
:102A8000EFCF90911A02892F8B7F92FF8460809301
:102A90001A0282FDF2CFCBCF90911A02892F877F45
:102AA00093FF886080931A0283FDE7CFC0CF0E9416
:102AB000460C90915302892F97FB87F98058809399
:102AC0005302B5CF80E00E94F414B1CF8953FBCFFD
:102AD0008D51F9CF80E0089580E008950C946C1535
:102AE000CF93C82F80911C02882331F0813099F058
:102AF00010921C0280E00DC00E94C8118232D1F7F2
:102B00008C2F0E946C15811116C08C2F0E940B1502
:102B10008170CF9108950E94C811823289F38C2F61
:102B20000E946E15811105C0C43171F038F4CB30AC
:102B300079F781E0EDCF81E090E0EACFC93221F072
:102B4000C833B9F380E0E4CF10921C02FBCF809130
:102B50003D0208950895CF93DF9300D00F92CDB733
:102B6000DEB790915902943019F589837B836A838B
:102B700082E08093E9008FEF9091E800815095FD0D
:102B800006C095ED9A95F1F700008111F5CF80917F
:102B9000E80085FF0DC050E040E063E070E0CE014A
:102BA00001960E94AF178091E8008E778093E8002D
:102BB0000F900F900F90DF91CF910895BC0184E0AA
:102BC0000C94AB15BC0183E00C94AB15CF93DF9351
:102BD000EC0180910C018823B1F18091530287FFB1
:102BE00032C060E282E08093E9008FEF9091E800CC
:102BF000815095FD06C095ED9A95F1F70000811181
:102C0000F5CF8091E80085FF1BC080910C0170E03A
:102C100050E040E0811104C050E040E068E070E026
:102C2000CE010E94AF178091E8008E778093E80074
:102C300080E2FE01ADE1B2E001900D928A95E1F7EC
:102C4000DF91CF91089568E081E0CDCF8091580267
:102C5000811109C00E943F190E949C198091E200D5
:102C600084608093E20008951092580208950895B8
:102C700008950C94311442E061EC81E00E94BB188D
:102C800042E261EC82E00C94BB1880915B028330DD
:102C900009F45FC030F48130C1F1823009F49BC087
:102CA00008958A3009F487C08B3009F46DC08930EB
:102CB00009F04EC080915A02813209F049C08091DA
:102CC0005E0290915F02029708F042C08091E80096
:102CD000877F8093E8008091E80082FF35C0909163
:102CE000F3008091F200029729F48091F1008B7F2C
:102CF000813021F48091F10080933D028091E800C1
:102D00008B778093E8000C94EF1880915A02813AF7
:102D1000F9F48091E800877F8093E80080915E025B
:102D200090915F02892B61F460E28DE192E070E0A6
:102D30000E94FE178091E8008B778093E800089549
:102D400060E090E080E0F3CF809159028111C3CF21
:102D5000089580915A02813AD9F780915E0290914C
:102D60005F02892BA9F78091E800877F8093E800B4
:102D70008091E80080FFFCCF80910C018093F100EE
:102D80008091E8008E77BDCF80915A02813201F7A1
:102D900080915E0290915F02892BD1F68091E800CC
:102DA000877F8093E8000E94EF1880915C028093F7
:102DB0000C010C94460C80915A02813249F68091A4
:102DC000E800877F8093E8000E94EF1880915D0201
:102DD00080933E02089580915A02813A09F0B8CF5B
:102DE0008091E800877F8093E8008091E80080FF71
:102DF000FCCF80913E02C2CF84B7877F84BF0FB6DD
:102E0000F894A8958091600088618093600010928A
:102E100060000FBE80E890E00FB6F89480936100E8
:102E2000909361000FBE0E9462080E943F190E94A9
:102E30009C198091E20084608093E20078940E9463
:102E4000251C0E946E0882E091E00E94FD0780919F
:102E50005902853039F00E9476080E946C080E9461
:102E60006D08F5CF0E94E81380915702882379F30B
:102E70000E941914882359F30E949917E8CF0C94E3
:102E80004117292F33272330310519F168F42130F8
:102E9000310509F444C02230310509F445C090E001
:102EA00080E030E020E025C02132310549F12232B6
:102EB0003105A9F780E490E028E133E06115710560
:102EC000C1F08DE690E02BEA32E06130710589F0C7
:102ED000E6CF99278130910581F0009729F002977C
:102EE000F1F6ECE2F2E002C0EAE5F2E0849190E073
:102EF0009F01FA01318320830895E2E4F2E0F6CFE6
:102F000089E090E020E732E06115710591F389E0F6
:102F100090E029E832E06130710559F3C0CF82E1D9
:102F200090E029E932E0E5CF8BE390E02EE532E056
:102F3000E0CF80E189BD82E189BD09B400FEFDCF0B
:102F40008091D8008F7D8093D8008091E0008260CE
:102F50008093E0008091E00081FDFCCF0895AF9266
:102F6000BF92CF92DF92FF920F931F93CF93DF9385
:102F70006C01EB018A010E940E19F82E811123C009
:102F80000115110539F0F80180819181C81BD90B19
:102F9000C80ED91EB12CA12C2097A9F08091E80071
:102FA00085FD22C08091E8008E778093E8000115AE
:102FB0001105A1F0F80180819181A80EB91EB1829E
:102FC000A08285E0F82E8F2DDF91CF911F910F9178
:102FD000FF90DF90CF90BF90AF9008950E940E19A0
:102FE0008823D1F2F82EEFCFF60181916F01809303
:102FF000F1002197FFEFAF1ABF0ACECFFC018091FD
:1030000060029091610286179707A0F06115710523
:1030100029F49091E8009E779093E80090E0611584
:10302000710551F4911108C08091E80082FF34C00D
:1030300080E00895BC01F2CF809159028823C1F14C
:103040008530C1F18091E80083FD30C08091E800B7
:1030500082FDEACF8091E80080FFE1CF8091F3000C
:103060002091F200382F6115710519F028303105D3
:1030700058F091E02830310509F090E02091E80007
:103080002E772093E800CBCF81918093F10061509F
:1030900071092F5F3F4FE7CF80915902882341F09C
:1030A000853041F08091E80083FFBECF81E0089534
:1030B00082E0089583E00895FC0180916002909180
:1030C000610286179707A0F06115710529F48091B8
:1030D000E8008E778093E80090E06115710551F467
:1030E000911108C08091E80082FF35C080E008950A
:1030F000BC01F2CF809159028823C9F18530C9F112
:103100008091E80083FD31C08091E80082FDEACF24
:103110008091E80080FFE1CF8091F3002091F200E0
:10312000382F6115710519F02830310558F091E0FC
:103130002830310509F090E08091E8008E77809387
:10314000E800CBCF84918093F100319661507109F2
:103150002F5F3F4FE6CF80915902882341F08530A1
:1031600041F08091E80083FFBDCF81E0089582E0C7
:10317000089583E00895982F973028F08F708093FA
:10318000E90081E008959093E900242F762F50E024
:10319000981731F07091EC002091ED005091F00003
:1031A00021FD02C09F5FE8CF3091EB003E7F30935E
:1031B000EB003091ED003D7F3093ED003091EB005E
:1031C00031603093EB007093EC002093ED0050934E
:1031D000F0002091EE0027FDE5CF80E0089580917A
:1031E0005A0287FF13C08091E80082FF06C08091D9
:1031F000E8008B778093E80004C080915902811128
:10320000F2CF0895809159028823D9F38091E80084
:1032100080FFF8CF8091E8008E77ECCF2091E4001A
:103220003091E50095E6A9012091EC00822F817094
:1032300020FF06C08091E80080FF06C080E008956E
:103240002091E80022FD1AC080915902882389F05C
:10325000853089F08091EB0085FD0FC02091E4005E
:103260003091E50042175307F9F29150E1F684E0FE
:10327000089582E0089583E0089581E008950E9412
:10328000AD190E94B519E0EEF0E080818160808385
:10329000E8EDF0E080818F77808319BCA7EDB0E086
:1032A0008C918E7F8C9380818F7E808310925802C8
:1032B00008950F931F93CF93DF930E94AD190E943F
:1032C000B519C8EDD0E088818F77888388818068C0
:1032D000888388818F7D888319BC1092590210924F
:1032E0005502109257021092560200EE10E0F801BB
:1032F00080818B7F808388818160888342E060E069
:1033000080E00E94BB18E1EEF0E080818E7F808338
:10331000E2EEF0E08081816080838081886080833C
:10332000F80180818E7F8083888180618883DF912E
:10333000CF911F910F910895E8EDF0E080818F7E8D
:103340008083E7EDF0E080818160808384E082BF4C
:1033500081E0809358020C945919E8EDF0E08081E7
:103360008E7F80831092E20008951092DA0010920E
:10337000E10008951F920F920FB60F9211242F9320
:103380003F934F935F936F937F938F939F93AF93ED
:10339000BF93EF93FF938091E10082FF0BC0809178
:1033A000E20082FF07C08091E1008B7F8093E10003
:1033B0000E94241C8091DA0080FF19C08091D800FF
:1033C00080FF15C08091DA008E7F8093DA008091B3
:1033D000D90080FF96C080E189BD82E189BD09B432
:1033E00000FEFDCF81E0809359020E942616809155
:1033F000E10080FF19C08091E20080FF15C080913C
:10340000E2008E7F8093E2008091E20080618093F1
:10341000E2008091D80080628093D80019BC85E0DA
:10342000809359020E9438168091E10084FF2BC0DE
:103430008091E20084FF27C080E189BD82E189BDDF
:1034400089B5982F917080FFFBCF8091D8008F7D38
:103450008093D8008091E1008F7E8093E10080917D
:10346000E2008F7E8093E2008091E2008160809391
:10347000E20080915502882309F449C084E08093DA
:1034800059020E9439168091E10083FF29C0809182
:10349000E20083FF25C08091E100877F8093E100F7
:1034A00082E080935902109255028091E1008E7F54
:1034B0008093E1008091E2008E7F8093E200809112
:1034C000E20080618093E20042E060E080E00E94E0
:1034D000BB188091F00088608093F0000E9437163E
:1034E000FF91EF91BF91AF919F918F917F916F91DC
:1034F0005F914F913F912F910F900FBE0F901F90B2
:10350000189519BC109259020E94341670CF809100
:10351000E30087FD93E090935902B3CF1F920F927F
:103520000FB60F9211242F933F934F935F936F9396
:103530007F938F939F93AF93BF93CF93DF93EF933B
:10354000FF93D091E900DF708091EC00C82FC1702B
:1035500080FDC0E81092E9008091F000877F8093A1
:10356000F00078940E94D21A1092E9008091F00045
:1035700088608093F000CD2BCF70C093E900FF915D
:10358000EF91DF91CF91BF91AF919F918F917F91FB
:103590006F915F914F913F912F910F900FBE0F90C0
:1035A0001F9018951F93CF93DF93CDB7DEB7AA97DF
:1035B0000FB6F894DEBF0FBECDBF8AE592E0209132
:1035C000F100FC012193CF01F2E082369F07B9F7A9
:1035D0000E9445168091E80083FF1EC180915A0227
:1035E00090915B029A3008F017C1E92FF0E0E951A1
:1035F000F34E0C94401C803899F0823809F00CC1CD
:1036000080915E028F70873008F006C18093E900D8
:103610008091EB0085FB882780F91092E90006C0B5
:103620008091560290915702911182609091E8002A
:10363000977F9093E8008093F1001092F1008091C1
:10364000E8008E77E5C0882309F4D3C0823009F002
:10365000E3C080915C028111D6C080915E028F70C0
:103660002FEF280F263008F0D7C08093E900209173
:10367000EB0020FFC8C0933031F48091EB008062F2
:103680008093EB00C0C09091EB0090619093EB00B1
:1036900021E030E001C0220F8A95EAF72093EA008A
:1036A0001092EA008091EB008860EACF8111B4C0EB
:1036B00010915C021F778091E3008078812B8093CA
:1036C000E3008091E800877F8093E8000E94EF1874
:1036D0008091E80080FFFCCF8091E30080688093B8
:1036E000E30082E0111183E08093590295C0805875
:1036F000823008F091C080915C0290915D028C3D17
:1037000023E09207A1F583E08A838AE289834FB799
:10371000F894DE01139620E03EE051E2E32FF0E062
:1037200050935700E49120FF03C0E295EF703F5F94
:10373000EF708E2F90E0EA30C0F0C7968D939D9386
:103740002F5F243159F74FBF8091E800877F809326
:10375000E8006AE270E0CE0101960E94FE178091B7
:10376000E8008B778093E80057C0C096E7CF609160
:103770005E0270915F02AE014F5F5F4F0E943F1784
:10378000BC01892B09F448C09091E800977F909381
:10379000E80089819A810E945C18E1CF8038E1F5C8
:1037A0008091E800877F8093E800809155028093A4
:1037B000F10045CF811130C090915C02923060F5EC
:1037C0008091E800877F8093E800909355020E94E3
:1037D000EF1880915502882311F084E005C0809194
:1037E000E30087FDFACF81E0809359020E943B16E7
:1037F00013C080915C02813079F481E0933009F04C
:1038000080E0809357021092E9008091E800877F62
:103810008093E8000E94EF188091E80083FF0AC0BF
:103820008091E800877F8093E8008091EB008062C0
:103830008093EB00AA960FB6F894DEBF0FBECDBF03
:10384000DF91CF911F9108950895CF9380915902F0
:103850008823A1F0C091E900CF709091EC00892FEE
:10386000817090FD80E8C82B1092E9008091E800FB
:1038700083FD0E94D21ACF70C093E900CF910895C2
:10388000EE0FFF1F0590F491E02D0994F999FECFFA
:1038900092BD81BDF89A992780B50895A8E1B0E05E
:1038A00042E050E00C947A1C262FF999FECF92BD8D
:1038B00081BDF89A019700B4021639F01FBA20BDF5
:1038C0000FB6F894FA9AF99A0FBE08950396272F27
:1038D0000E94551C0E94541C252F0E94551C242F09
:1038E0000C94551C0196272F0E94551C0C94541CB7
:1038F000DC01CB01FC01F999FECF06C0F2BDE1BDB0
:10390000F89A319600B40D9241505040B8F708959E
:10391000F894FFCF1E0A1E0A760A760AC80A4B0AD6
:103920004B0A4B0AE40A700B7F0B7F0BDB0B4B0A35
:103930004B0AE40B550C550C5E0C5E0C600C5E0CD7
:103940005E0C5E0C550C550C650C5E0C5E0C650C2B
:1039500022151915251517156A156A1517156A15F3
:103960006A1541156A154C1557156A156A156A15B9
:103970006A1517156A156A1517156A1533156A152C
:103980006A1568156815681568156815681568154D
:103990006815681562156A15221515156A156A15D8
:1039A0006A156A156A156A156A156A156A156A151F
:1039B00062156A156A1517156A1566156615661576
:1039C0006615661566156615661566156215FB1A89
:1039D000231B0C1C231B0C1C561B771B0C1CCE1B07
:0239E000DA1BF0
:1039E200F701A715E615AA15E215DE1501E200E9B1
:1039F20000EA00B500B600B700CD008301CC008A12
:103A020001920194012102230224022502260227A7
:103A1200022A02B300B4006F007000818283F4F5C1
:103A2200F6F79190946697C6343531333236E20018
:103A3200E900EA00B500B600B700CD008301CC0072
:103A42008A01920194012102230224022502260204
:103A520027022A02B300B4006F0070008182830043
:00000001FF
