:100000000C941D020C9464020C9464020C9464021F
:100010000C9464020C9464020C9464020C946402C8
:100020000C9464020C9464020C94E41E0C94B81FAB
:100030000C94A6180C9464020C9464020C94640250
:100040000C9464020C9464020C9464020C94640298
:100050000C9464020C94FD180C9464020C946402D9
:100060000C9464020C9464020C9464020C94640278
:100070000C9464020C9464020C9464020C94640268
:100080000C9464020C9464020C9464020C94640258
:100090000C9464020C9464020C9464020C94640248
:1000A0000C9464020C9464020C9464022900140001
:1000B0001A000800150017001C0018000C001200A0
:1000C00013002A002B0004001600070009000A0094
:1000D0000B000D000E000F0033003100E1001D0089
:1000E0001B00060019000500110010003600370043
:1000F0003800E100E0000151000028000000390054
:1001000000002C0000000251E600000035021E0233
:100110001F022002210222022302240225022602BB
:10012000270201002B083A003B003C003D003E0046
:100130003F002D022E022F02300234020100400047
:100140004100420043004400450046084C054A0077
:100150004D0001000100010000000100000001004D
:1001600000000100000001000100000035001E0039
:100170001F0020002100220023002400250026006B
:10018000270001004C003D04520050184E18521830
:100190004F182D002E002F0030003400005C50005E
:1001A00051004F00AA00A900AC00AE00AB004B000C
:1001B0004E000100010001000000010000000100EC
:1001C000000001000000010001000000010001002A
:1001D0000100010001000100010001000100010017
:1001E0000100010001000100010001000100010007
:1001F00001000100010001000100010001000100F7
:1002000001000100010001000100010001000100E6
:1002100001000100010001000000010000000100D8
:1002200000000100000001000100000000000000CB
:10023000000000002A2B2800000000000000000041
:100240000000000000000029000000002C1E3420E7
:10025000212224342627252E362D3738271E1F200D
:100260002122232425263333362E37381F04050652
:100270000708090A0B0C0D0E0F1011121314151696
:100280001718191A1B1C1D2F3130232D3504050694
:100290000708090A0B0C0D0E0F1011121314151676
:1002A0001718191A1B1C1D2F3130354C0000000087
:1002B000000000000000000000000000000000003E
:1002C0007E0F00D4FFFFFFC7000000781403630017
:1002D0006800720069007300740079003400300017
:1002E00000001603760061006C0064007900640071
:1002F0006500730075005F00000004030904090233
:100300005B00030100A0FA090400000103010100E1
:100310000921110100012240000705810308000A9C
:10032000090401000203000000092111010001225B
:1003300022000705820320000107050303200001B6
:10034000090402000103000000092111010001223B
:100350006D000705840320000A120110010000004F
:100360000869AB86860100010200010660FF096191
:10037000A1010962150026FF009520750881020978
:1003800063150026FF00952075089102C00501093C
:1003900080A101850319012AB700150126B7009530
:1003A0000175108100C0050C0901A1018504190126
:1003B0002AA002150126A002950175108100C00532
:1003C000010906A1018505050719E029E7150025A2
:1003D000019508750181020507190029EF1500250F
:1003E0000195F0750181020508190129059505752A
:1003F000019102950175039101C005010906A10152
:10040000050719E029E71500250195087501810206
:100410009501750881010507190029FF150026FFC0
:1004200000950675088100050819012905950575CF
:10043000019102950175039101C011241FBECFEFF8
:10044000DAE0DEBFCDBF04B603FE27C080917002A4
:1004500090917102A0917202B09173028730904B1B
:10046000A740B04BD1F4109270021092710210921A
:1004700072021092730214BE84B7877F84BF0FB6D6
:10048000F894A89580916000886180936000109234
:1004900060000FBEE0E0F8E3099511E0A0E0B1E0F4
:1004A000EAE6F4E402C005900D92AE38B107D9F740
:1004B00022E0AEE8B1E001C01D92A037B207E1F73B
:1004C0000E94AA1B0C94B9210C94000081E00895AD
:1004D00081E008950C94680208950C946C021F93B7
:1004E000CF93DF9300D000D00F92CDB7DEB7498312
:1004F0005A836B833091A40189819A8131111DC087
:100500006623B9F02223A9F00E94A015182F682FA6
:1005100089819A810E944C1569817A81812F0F907F
:100520000F900F900F900F90DF91CF911F910C942F
:1005300073090E947815182FEFCF0E94A0156981CA
:100540007A81EDCFFC01262F408151816281738138
:1005500084810C946F02CF93DF93EC0160E00E94E2
:10056000A202BE01DF91CF910C946D02FF920F9316
:100570001F93CF93DF93E82FF0E0E45DFD4FF490FD
:10058000C82FC695C695C695D0E0FE01E454FD4F30
:100590000491877010E0082E02C0159507950A9403
:1005A000E2F701701127C455DD4FFE01C491D0E080
:1005B00002C0D595C7958A95E2F7C170DD27011570
:1005C000110519F081EE0E94C00D209719F086EEFA
:1005D0000E94C00D8F2D0E94330ECD2B19F086EE98
:1005E0000E940B0E012B41F081EEDF91CF911F9104
:1005F0000F91FF900C940B0EDF91CF911F910F91F3
:10060000FF900895EF92FF920F931F93CF93DF9384
:10061000EC01162F0AE08881882309F454C0813048
:1006200009F04EC08981813099F47E0122E0E20E0A
:10063000F11C8A810E94330EE7012196812F81509F
:1006400050F3EFE9FFE03197F1F700C00000F7CF7A
:10065000823041F47E0182E0E80EF11C8A810E9422
:10066000C00DEACF833041F47E01E2E0EE0EF11CD2
:100670008A810E940B0EE0CF843011F02196DDCFED
:100680002A81229690E080E0AE014F5F5F4F2053B9
:10069000330B2A30310548F0019778F2EFE9FFE09B
:1006A0003197F1F700C00000F7CF089FB001099F14
:1006B000700D1124C901860F971F2981EA01E4CF2B
:1006C0000E94B602BACFDF91CF911F910F91FF9098
:1006D000EF90089560E00C9402038F929F92AF9286
:1006E000BF92CF92DF92EF92FF920F931F936B0115
:1006F0007C0181E090E0A0E0B0E04C015D0104C02D
:10070000880C991CAA1CBB1C4A95D2F7B501A40100
:100710004C015D0104C0880C991CAA1CBB1C2A95C5
:10072000D2F7482959296A297B2904C0880F991FC3
:10073000AA1FBB1F0A95D2F78A019B010C211D211C
:100740002E213F21041715072607370789F48C2926
:100750009D29AE29BF29BC01CD011F910F91FF90AA
:10076000EF90DF90CF90BF90AF909F908F900895C3
:1007700080959095A095B0958C219D21AE21BF21AB
:10078000EACF0F93382F262F6091FB017091FC0167
:100790008091FD019091FE01042F432F0E946D0373
:1007A0000F910C948A140E9434190E94EA16811148
:1007B00002C00E948E170C9433060C9436060895DE
:1007C0000E94B3100E94DF032FEF84E39CE02150CE
:1007D00080409040E1F700C000000C9421190F9375
:1007E0001F93CF93DF93EC0161E00E94A2028C0182
:1007F000BE010E94AA07882359F1BE01C8010E94C8
:100800006A02882329F1BE01C8010E94C90A88230F
:10081000F9F0BE01C8010E941B0B8823C9F0BE017C
:10082000C8010E943E0C882399F08A81882339F000
:1008300001158CE5180751F00F3D1C4579F0CE01EC
:10084000DF91CF911F910F910C9466020E94E003FB
:1008500080E0DF91CF911F910F9108950E948E1734
:10086000F7CF08950C94310481E008950C9434047A
:10087000CF93C82F0E9432048C2FCF910C94360452
:1008800090E080E008950895FC01EE0FFF1FE4530F
:10089000FD4F859194910895CF93DF930E94730942
:1008A0000E945805EC01811520E5920708F041C02F
:1008B000811530E4930708F0B4C0803E910518F527
:1008C000803C910508F09DC0883A910570F4853A06
:1008D000910508F08EC081309105F9F00097E9F09C
:1008E0000497D8F4D0E0C0E018C08F3B9105D0F752
:1008F000C85AD0E0CC0FDD1FC35FDE4F0990D8810E
:10090000C02DD4640AC08115904258F4C11581E00D
:10091000D80718F4C83ED10528F7CE01DF91CF9152
:100920000895C11590E3D90708F071C0CE019F70FA
:100930006AC0811525E5920758F5811534E59307BE
:1009400008F09EC0811542E5940750F4C11581E579
:10095000D80708F469C0DC2FCC27C16FD06ADDCF7F
:10096000982F969596959E0123703327C115D345F0
:1009700008F077C0C1E0D0E002C0CC0FDD1F2A959F
:10098000E2F720E2929FC0011124C82BD92B67C047
:10099000C11589E5D807A8F4C11598E5D90708F06D
:1009A00074C0C11526E5D20708F09CCF8C2F0E9499
:1009B000EF05C82FD0E0DC2FCC27CC27DF71D06229
:1009C000ACCFC1153AE5D30708F464C0CE01905608
:1009D0008115904208F086CF8D2F8F710E94EF0510
:1009E00090E0982F882788279F719C012C2BE90184
:1009F000E6CFC55AD0E0C55CDE4FC881D0E0D064F8
:100A00008CCF805C91090E944404EC0186CFCE011A
:100A10009927D3FF03C0EC01D86C7FCFEC01D06CD9
:100A20007CCFDF70D06A79CFCE01E4E096958795D0
:100A3000EA95E1F783702C2F26952695237090E296
:100A4000299F90011124382B8C2F8370C1E0D0E0B6
:100A500002C0CC0FDD1F8A95E2F7C22BD32BDC68D6
:100A60005CCFC1E0D0E002C0CC0FDD1F2A95E2F7D9
:100A700030E2939FC0011124C82BD92BDA684DCFE7
:100A8000D82FCC27C46FD06A48CFDC2FCC27C06FBB
:100A9000D06A43CF8C2F8F700E94EF0534E0D6953B
:100AA000C7953A95E1F7CF709C2FEC01D06935CF0F
:100AB00082389105B1F1B0F48133910509F475C024
:100AC00048F48932910509F469C08A32910509F424
:100AD00073C008958533910509F459C08933910590
:100AE00001F10895833E9105A9F138F4803E910506
:100AF000F9F0823E910549F10895863E9105A9F1EC
:100B0000873E9105C9F1843E910519F52091620255
:100B100021FF1FC08091610284FD14C087EE90E028
:100B20000895209161022370A1F080EE90E0089575
:100B30002091610220FD47C03091620230FF09C060
:100B400024FF44C090E080E004C02091610222FDB7
:100B5000F7CF08952091610222FD3BC030916202DF
:100B600030FDE3CF24FFF5CFEDCF2091610223FFCD
:100B7000F0CF24FDE7CFD2CF2091610223FD2CC01E
:100B80003091620231FFEECF84EE90E00895209123
:100B9000610225FFDECF89E290E008952091610295
:100BA00025FFD7CF85E390E008952091610226FFCD
:100BB000D0CF8AE290E008952091610226FFC9CF4C
:100BC00081E390E0089589E390E0089583EE90E05A
:100BD000089582EE90E0089586EE90E00895909159
:100BE000610292FF06C0282F28712830F9F4877F10
:100BF000846093FF06C0282F28712831F1F4877E86
:100C000084612091620220FF06C0382F387138308D
:100C1000D9F4877F816021FF06C0282F28712831F1
:100C2000D1F4877E816194FD877E0895282F2471F9
:100C30002430F9F68B7F8860DCCF282F2471243193
:100C400001F78B7E8861DDCF382F3171313019F794
:100C50008E7F8860E0CF282F2171213121F78E7E91
:100C60008861E1CF08950C94320608950C943506FE
:100C7000E82FF0E0EE0FFF1FEB5AFD4F80819181CE
:100C80000895089580EA8A95F1F70895F894E82F79
:100C9000E295EF70F0E031A1282F2F7081E090E015
:100CA00001C0880F2A95EAF7982F9095932391A376
:100CB00092A1892B82A378940895CF93DF9381E347
:100CC0000E94460683E30E94460682E30E9446068F
:100CD00086E30E944606CEE3D1E089910E94460653
:100CE00081E0CA34D807C9F710924E0210924D0223
:100CF00010925602109255021092500210924F021A
:100D00001092580210925702109252021092510201
:100D100010925A02109259021092540210925302E9
:100D200010925C0210925B0284E00E941907DF912E
:100D3000CF910C94D303AF92BF92DF92EF92FF92C8
:100D40000F931F93CF93DF93CAE4D1E00DE412E039
:100D5000D12CEE24E394F12C8991F894E82FE295BC
:100D6000EF70F0E021A18F70A70102C0440F551F62
:100D70008A95E2F7CA01922F982B91A392A18095B0
:100D8000892382A378940E944206EEE3F1E030E0EA
:100D900020E0B12CA12C4191A42FA295AF70B0E01E
:100DA00090968C9190E04F7002C0959587954A95EA
:100DB000E2F780FD39C0C701022E02C0880F991FDB
:100DC0000A94E2F7A82AB92A2F5F3F4F2C30310549
:100DD00011F7FE01319780810E944606F80180815B
:100DE0009181A816B90619F1B182A08281E0D82AB2
:100DF0000E5F1F4FF1E0CE34DF0709F0ADCF2D2D90
:100E000044E065E572E08DE492E00E941A070E94DA
:100E1000DD038D2DDF91CF911F910F91FF90EF900A
:100E2000DF90BF90AF90089590E080E0CBCF80E05E
:100E3000DECF0895FF920F931F93CF93DF93F82E89
:100E4000092F162FD72FC42F222349F081E080933A
:100E500090010E94D61890938F0180938E0180910B
:100E600090018823A1F080918E0190918F010E94C2
:100E7000EE18069760F0EF2DF02FA12FBD2F90E018
:100E800080E0D0E08C179D0744F010929001DF9134
:100E9000CF911F910F91FF900895219131912D9342
:100EA0003D930196EFCF82E290E00E94772181325C
:100EB00089F483E290E00E947721853059F484E23E
:100EC00090E00E94772191E0893009F090E0892F2D
:100ED0008170089580E0FCCFCF93C82F6FEF811110
:100EE00061E282E290E00E9485216FEFC11165E02E
:100EF00083E290E00E9485216FEFC11169E084E2F6
:100F000090E0CF910C94852180E00E946C070C94B6
:100F1000E416089585E290E00E947721682F70E042
:100F200090E080E0089585E290E00C9485210E9495
:100F300089070E94530781110CC060E070E0CB016B
:100F40000E9493070E94EB080E94D70981E00C944D
:100F50006C070895CF93FB01C281CC2309F19C015A
:100F600022513F452031310520F582510E94E70989
:100F7000C0E08C2FCF91089581E00E94B01443E02F
:100F800062E081E00E94C103F3CF81E00E94D114AE
:100F900043E062E081E00E94C103EBCF82E0F6CF44
:100FA0008031FFE59F0789F381319F45B9F3C1E0A7
:100FB000E0CF8031EFE59E07F9F281319F45C9F618
:100FC00082E0DBCF2FEFFC0120830895EF92FF92A8
:100FD0000F931F93CF93DF93EC01062FE881E1502D
:100FE000E33108F05EC0F0E0E554FE4D0C946A2158
:100FF000198289E08A83602FCE01DF91CF911F9102
:101000000F91FF90EF900C949E1A8981823069F0C5
:10101000833071F08130D9F40E94E2180E9470216F
:101020006A837B838C839D83E6CF0E948A07F6CFF9
:101030007E0110E0812F0E943806F701928383839E
:101040001F5FF2E0EF0EF11C1430A1F7D4CF602F38
:10105000CE010E94E207CFCF89818230C1F76A8139
:101060007B818C819D810E9470210E949307C3CF58
:101070004B816A8189810E94BD089827892798271A
:101080009D838C83B8CF2C813D8132272327322743
:101090004B816A8189810E94D608ADCF0E94EB08FE
:1010A000AACF8FEF8883A7CF0E9480098983A3CF1F
:1010B0000E9482099827892798279A8389839BCF42
:1010C0006B8170E089819A81AE014C5F5F4F9827F8
:1010D000892798270E9485098ECF6B8170E08981CE
:1010E0009A81AE014C5F5F4F9827892798270E940D
:1010F000AC0981CF0E94D7097ECF0E94AB08D6CF22
:101100006B8170E089819A81AE014C5F5F4F9827B7
:10111000892798270E9423096ECF6B8170E089810F
:101120009A81AE014C5F5F4F9827892798270E94CC
:10113000490961CF0E9484075ECF0E949E1A2FEF5B
:1011400081EE94E0215080409040E1F700C0000023
:101150000E94211950CF84E0089550E0440F551F9C
:1011600098E1699F400D511D112490E6899F400D23
:10117000511D1124CA01869608950F931F93CF9392
:10118000DF930E94AD088C010E947721C82FD0E028
:10119000DC2FCC27C80101960E9477219E01282BC5
:1011A000C901DF91CF911F910F9108950F931F9364
:1011B000CF93DF93122F032F0E94AD08EC01602F15
:1011C0000E948521612FCE010196DF91CF911F9161
:1011D0000F910C948521AF92BF92CF92DF92EF9244
:1011E000FF921F93CF93DF938CEAC82E80E0D82E16
:1011F000D0E07601C0E014C0F50125913491412F73
:101200006C2F8D2F0E94D60882E0A80EB11C1F5FA4
:101210001C3091F788E1E80EF11CCF5FC43019F063
:10122000570110E0E9CFDF5F80E6C80ED11CD43053
:1012300001F7DF91CF911F91FF90EF90DF90CF905A
:10124000BF90AF900895EF92FF920F931F93CF93AB
:10125000DF93EC018A017C01E60EF71ECE01869633
:10126000CE15DF0539F4DF91CF911F910F91FF90DB
:10127000EF900895C03821E0D20740F40E94772112
:10128000F80180830F5F1F4F2196E8CFF80110828D
:10129000F9CFCF92DF92EF92FF920F931F93CF93EC
:1012A000DF937C016A018C01060F171FEC01CE0150
:1012B0008696C017D10749F4DF91CF911F910F9106
:1012C000FF90EF90DF90CF900895C03821E0D207D3
:1012D00040F4FE01EE19FF09EC0DFD1D60810E9436
:1012E00085212196E4CF462F843038F4743028F4D9
:1012F0006C3018F4672F0C94BD0890E080E00895DE
:1013000080E108958AE592E00895EF92FF920F93AD
:101310001F93CF93DF93EC018A017C01E60EF71E49
:10132000CE018A559E4FCE15DF0539F4DF91CF915E
:101330001F910F91FF90EF900895CA3522E0D207D8
:1013400040F40E947721F80180830F5F1F4F2196A0
:10135000E7CFF8011082F9CFCF92DF92EF92FF92A0
:101360000F931F93CF93DF937C016A018C01060FCB
:10137000171FEC01CE018A559E4FC017D10749F4C3
:10138000DF91CF911F910F91FF90EF90DF90CF9061
:101390000895CA3522E0D20740F4FE01EE19FF0994
:1013A000EC0DFD1D60810E9485212196E3CFCF9336
:1013B000DF93C6EAD1E060E0CE010E94852121964C
:1013C000C11584E0D807B9F7DF91CF910895DF9276
:1013D000EF92FF920F931F93CF93DF9300D000D033
:1013E000CDB7DEB7F82E8FE08F1540F08FEF93E08A
:1013F0000E94772106EA11E08823C1F00F900F9038
:101400000F900F90DF91CF911F910F91FF90EF9070
:10141000DF900895011584E0180781F3C8010E9448
:101420007721811101C0FA940F5F1F4FF110F2CFA5
:1014300019821A821B821C82DD24D39478018FEFDB
:10144000E81AF80AC8010E94772189831A82882342
:10145000A9F29FEF980F933078F48A83D9820E5FB8
:101460001F4FC7010E9477218B83882339F2CE0159
:1014700001960E946A03E2CF8701F9CFAF92BF9233
:10148000CF92DF92EF92FF920F931F93CF93DF9350
:101490007C015B01C42FD22FFC0182818823F9F0EB
:1014A000409393010E94D6189093920180939101EA
:1014B00080E28C0F883008F061C0C77081E001C005
:1014C000880FCA95EAF7DF91CF911F910F91FF9096
:1014D000EF90DF90CF90BF90AF900C94460E10919C
:1014E0009301141340C080919101909192010E9448
:1014F000EE186C01B701C5010E942913C816D90660
:1015000090F5C0E2CD0F1D17B9F080E2810F883051
:1015100040F4177081E001C0880F1A95EAF70E9425
:101520004D0EC83048F481E09D2F977001C0880FA0
:101530009A95EAF70E94460E802F0E94330EC8301B
:10154000E8F4D77081E001C0880FDA95EAF7DF91FF
:10155000CF911F910F91FF90EF90DF90CF90BF90B0
:10156000AF900C944D0E80E28C0F883038F4C77029
:1015700081E001C0880FCA95EAF7E9CFDF91CF91EA
:101580001F910F91FF90EF90DF90CF90BF90AF90A1
:1015900008950F939C01CB01243F4CE5340759F18A
:1015A000A8F4293DFCE53F0701F12A3D4CE534074D
:1015B000D1F1283D3C4591F406E221EE41EE68ED83
:1015C0007CE50E943E0A80E00F910895263FFCE5ED
:1015D0003F07E9F0B0F0273F3C45F9F0FC0182817C
:1015E000882339F110929301EFCF07E225EE45EE03
:1015F00069ED7CE5E6CF06E221EE40EE64EF7CE5A6
:10160000E0CF07E225EE44EE65EF7CE5DACF06E2B7
:1016100021EE42EE66EF7CE5D4CF07E225EE46EE02
:1016200067EF7CE5CECF08E221E045EE6AED7CE590
:10163000C8CF81E0C9CFCF93DF93EC01FB0182815A
:10164000882309F419C1C230FCE5DF07C0F1C631B7
:101650009CE5D90730F09E012B5F3C4529303105D0
:1016600070F50E94FD169093620280936102C03172
:10167000ECE5DE0709F4CFC008F05BC0C8308CE5AC
:10168000D80709F4B6C088F5C430ECE5DE0709F4E4
:10169000A8C0C0F4C2308CE5D80709F49CC0809182
:1016A00061028260C330DC4509F498C08091610218
:1016B000909162020E940B170E94B31080E0DF91AC
:1016C000CF910895809161028061C630ECE5DE071C
:1016D00009F484C0809161028860C730DC4508F459
:1016E0007DC080916102806279C0CC308CE5D807E2
:1016F00009F489C070F4809161028C60CA30ECE515
:10170000DE0709F46BC008F478C0809161028E7F17
:1017100065C0CE308CE5D80709F479C080916102AC
:101720008B7FCF30DC4508F459C0809161028F7EF9
:1017300055C0CC3FECE5DE0709F457C030F5C331A6
:101740008CE5D80709F46FC078F4C131ECE5DE0709
:1017500009F465C0C231DC4509F0A8CF0E94B3107E
:10176000809161028F773AC0C5318CE5D80709F4C2
:1017700062C008F476C0809162028160CB3FDC4594
:1017800009F094CF8093620291CFC115FDE5DF0788
:1017900009F44DC088F4809162028D7FCE3F9CE5B4
:1017A000D90781F3809162028E7FCF3FDC4550F3F1
:1017B000809162028360E6CFC230FDE5DF0709F465
:1017C00059C008F444C080E0C330DD4509F06ECF55
:1017D0000E9490176BCF80916102816080936102BB
:1017E00065CF809161028460F9CF8091620282604E
:1017F000C9CF809161028064F1CF0E94B3108091C3
:1018000061028068EBCF809161028D7FE7CF80918C
:101810006102877FE3CF809161028F7DDFCF80916E
:1018200061028F7BDBCF80916102837FD7CF809174
:1018300062028C7FA7CF8091610282FB992790F989
:1018400021E0922790FB82F990FB83F9C7CF80912A
:101850006202982F909591708E7F892B90FB81F971
:1018600091CF0E94B31090916102892F97FB87F965
:101870008058B4CF81E0ACCF81E021CFCF93DF930C
:10188000EB0186319C4511F50E9435169A8199230A
:1018900099F08A7A91E009F490E090939401811193
:1018A00009C089E20E9410160E94811680E0DF9133
:1018B000CF91089585E3F6CF80919401811104C002
:1018C00089E20E941716F0CF85E3FBCF81E0EFCFCE
:1018D00090939A01809399010895E0919901F09174
:1018E0009A01309721F00190F081E02D099480E079
:1018F0000895E0919901F0919A01309799F0209123
:101900000C01222359F02091610227FF07C0DC015E
:101910002C9111962C93119725E02C930280F38142
:10192000E02D09940895209197013091980128178E
:10193000390771F09093980180939701E091990194
:10194000F0919A01309721F00680F781E02D0994FB
:10195000089520919501309196012817390771F06B
:101960009093960180939501E0919901F0919A01ED
:10197000309721F00084F185E02D0994089585B712
:10198000806885BF85B7806885BF089508950895EC
:101990000C94C60C08950C94CA0C0E94BF0C0E94B3
:1019A000C70C0C94C80C81E008950C94D30C0895D6
:1019B00008950E94CD180E945D060E9497070E941C
:1019C0004B190C94CB0C9F92AF92BF92CF92DF92A7
:1019D000EF92FF920F931F93CF93DF93CDB7DEB7B4
:1019E0002A970FB6F894DEBF0FBECDBF0E94D70C6A
:1019F0000E94D80C0E949B060E94D50C882309F4F3
:101A00006DC05CE9A52E51E0B52E10E000E0902EEF
:101A1000802F0E9438066C01F501E190F1905F0182
:101A2000E816F90609F454C08091280281FD0E944D
:101A3000410697012C253D2580E0EE24E394F12C0E
:101A4000A9014E215F21452BE9F18E839F82CE2093
:101A5000DF2081E0CD2809F480E088870E94D61835
:101A60008160782F9A8789874E815F8168858A8512
:101A70000E94910D000F111FF801E456FE4F808166
:101A80009181E826F926F182E0820E946D0C909106
:101A90009B018917A1F10E946D0C80939B012A96EE
:101AA0000FB6F894DEBF0FBECDBFDF91CF911F916F
:101AB0000F91FF90EF90DF90CF90BF90AF909F90ED
:101AC0000C9438048F5FEE0CFF1C8C3009F0B8CFFB
:101AD0000F5F1F4F0430110509F099CF8FEF8983F5
:101AE0008A831B820E94D6188160782F9D838C8305
:101AF00049815A816B818D810E94910DC6CF2A96B2
:101B00000FB6F894DEBF0FBECDBFDF91CF911F910E
:101B10000F91FF90EF90DF90CF90BF90AF909F908C
:101B20000895CF93DF93CDB7DEB72B970FB6F89418
:101B3000DEBF0FBECDBF4F83588769877A878B87FB
:101B40001E821D8285E0FE013796DE01119601900E
:101B50000D928A95E1F749815A816B817C818D8153
:101B60009E812B960FB6F894DEBF0FBECDBFDF91DE
:101B7000CF910C942C13FC01808191810C94E2157F
:101B8000CF93C82F882309F444C08CEF8C0F813A7F
:101B9000C8F48C2F0E94E91981113BC06C2F8091F1
:101BA0000001909101010E94A917882329F08C2F30
:101BB0000E9417160E9481168C2F0E941016CF913A
:101BC0000C94811680E28C0F883048F4C77081E055
:101BD00001C0880FCA95EAF70E943816F0CFEBE5EE
:101BE000EC0FE33040F4F0E0E458FE4F808190E0E9
:101BF000CF910C94930CC85AC73158F4EC2FF0E0F5
:101C0000EE0FFF1FE25BFE4F80819181CF910C941C
:101C1000A90CCF910895882329F19CEF980F913A50
:101C200020F40E9417160C94811690E2980F9830B9
:101C300050F4877091E001C0990F8A95EAF7892FD7
:101C40000E943E16F0CF9BE5980F933020F490E071
:101C500080E00C94930C885A873120F490E080E067
:101C60000C94A90C0895CF93C82F0E94C00DC933BE
:101C700049F42FEF87EE93E0215080409040E1F748
:101C800000C000008C2FCF910C940B0E882321F004
:101C90000E9438160C9481160895882321F00E9422
:101CA0003E160C9481160895BF92CF92DF92EF9268
:101CB000FF920F931F93CF93DF936C01D62FC72F03
:101CC000FC01058102950F70128111110E945516B9
:101CD0000E942E16E82E882391F01123D1F08C2F2C
:101CE000807F803421F080E28D0F883090F082E098
:101CF0000E94CC160E942E1691E0E82EE926BC2EFA
:101D0000B2949FE0B922EB2DF0E0E253FE4D0C942B
:101D10006A21E12CF4CF0C2F0F70C07F11F00295D7
:101D2000007F1123A9F0002359F080E28D0F883045
:101D300010F0D11109C0802F0E9438160E94811620
:101D40008D2F0E94C00D14C0802F0E944816F6CF20
:101D50008D2F0E940B0E002359F080E28D0F8830EA
:101D600010F0D1112CC0802F0E943E160E948116C7
:101D70002B2D2850330B2430310520F40E946D0C9C
:101D80000E943804EE2009F493C10E942A1680FDB7
:101D90008FC1F60112820E9424160E94B014C6015F
:101DA0000E9479100E942416DF91CF911F910F910C
:101DB000FF90EF90DF90CF90BF900C94D114802FC4
:101DC0000E944E16D3CFFC2FFF70FF2EC07FC03273
:101DD00019F0F29480EFF822DD2369F0D13049F157
:101DE000112391F1002351F1F601858180FFA8CFE5
:101DF0008F70858323C0112381F0011106C00E94DA
:101E000068168F290E94460EB3CF0130C1F70E9499
:101E100068168F290E946E16ABCF011106C00E9472
:101E200077168F2D0E944D0EA3CF013009F4A0CF5D
:101E3000F6CF112329F0063008F09ACF8F2DE2CF8C
:101E4000053008F095CFEDCF002359F3D93349F48D
:101E5000FFEF27EE33E0F15020403040E1F700C0C3
:101E600000008D2F0E940B0E83CF8C2F86958695B8
:101E7000837069F0813009F07BCF8D2F9C2F937098
:101E8000111102C090E080E00E94A90C71CF8D2F4B
:101E90009C2F9370111102C090E080E00E94930C7F
:101EA00067CF8C2F837009F041C0111161CF4D2F86
:101EB000429546954770440F440F0D2F0F7010E068
:101EC00030E020E0042E04C0000F111F221F331F3A
:101ED0000A94D2F760E070E0CB01D4FF0FC06FE04E
:101EE00070E080E090E004C0660F771F881F991FA4
:101EF0004A95D2F76095709580959095C695C69550
:101F0000C370602B712B822B932BC23049F058F495
:101F1000C13019F00E9462142BCF0E94501428CFB8
:101F20000E94741425CF0E944E1422CF869511234F
:101F300011F08C2F8170882309F41ACF4D2F429510
:101F400046954770440F440F0D2F0F7010E030E09E
:101F500020E0042E04C0000F111F221F331F0A941B
:101F6000D2F760E070E0CB01D4FF0FC06FE070E00B
:101F700080E090E004C0660F771F881F991F4A9584
:101F8000D2F76095709580959095C695C695C3706B
:101F9000602B712B822B932BC23049F058F4C13047
:101FA00019F00E942715E4CE0E941515E1CE0E947B
:101FB0003915DECE0E948A14DBCECF70112329F0B2
:101FC0008C2F0E94B0148D2F1DCF8D2F0E944D0E8F
:101FD0008C2F0E94D114CCCED23F89F160F4D03F37
:101FE000C9F0D13F29F1112309F442C00111A8CE53
:101FF0008C2F8F7121C0D33F39F1D43FA1F711232A
:1020000069F1CF718C2F0E94B01463E08C2F0E9475
:10201000B716AECE112341F0053008F0A9CE8C2FB3
:102020008F710E94F414A4CE063008F0A1CEF7CF31
:102030008C2F8F71112369F20E94B01499CE8C2FCE
:102040008F711123C9F3C5CF112329F08C2F8F7104
:102050000E949B148DCE0E9496148ACE81E00E942D
:10206000CC16023008F484CE82E00E94CC1680CEDA
:10207000002359F0D93309F0F4CE8FEF97EEE3E067
:1020800081509040E040E1F7EACE8C2F8F71A1CFD4
:102090004C2F4F706D2FC6010E9440040E94C61342
:1020A00067CE4C2F4F706D2FC6010E94430460CE47
:1020B000DF91CF911F910F91FF90EF90DF90CF9024
:1020C000BF9008950F931F93CF93DF93EC01688126
:1020D00079818A810E94EC158C010E944B150E9427
:1020E0004D14B801CE01DF91CF911F910F910C9447
:1020F000540ECF93DF93EC018B819C81892B29F0C7
:102100008881998189238F3F59F4DF91CF91089578
:10211000CE010E946210CE01DF91CF910C94AB02F0
:10212000CE010E94EF038111F3CF0E942E16882367
:1021300061F38A81882349F382E0DF91CF910C9487
:10214000CC160E9455160E9465160E94811690E0DA
:1021500080E00E94930C90E080E00C94A90C0E9417
:102160001E160C94A1100E9445160C94AF10E92F76
:10217000E295EF70E250EE3070F4F0E0E252FE4D86
:102180000C946A21803F19F020F4883E20F481E00D
:102190000895843FE1F380E00895883EC0F3813FD5
:1021A000D1F7F5CF93FB882780F908950E94E215B7
:1021B0000C94B710CF93DF9300D000D00F92CDB71F
:1021C000DEB70F900F900F900F900F90DF91CF918F
:1021D0000895CF93DF9300D000D000D0CDB7DEB705
:1021E00026960FB6F894DEBF0FBECDBFDF91CF911C
:1021F00008951F93CF93DF93C091A50116E08091BE
:10220000A6018C1304C0DF91CF911F910895D0E0F7
:102210001C9FF0011D9FF00D1124E955FE4F4081D8
:10222000518162817381848195810E94E910219698
:10223000C770E5CF4091D7015091D8016091D90185
:102240007091DA018091DB019091DC010C94E9102E
:102250001F93CF93DF938091DC01807FA9F480915D
:10226000D901882389F08091A501C091A6016091D0
:10227000D7017091D801A091DA01B091DB01D62F7E
:10228000D72316E0C81304C0DF91CF911F910895A2
:1022900090E0109711F0DF3F19F401968770F2CFAC
:1022A000189F9001199F300D1124F901E955FE4F37
:1022B00041814713F2CF40814613EFCF4281411154
:1022C000ECCF438154814A1B5B0B483C510528F7F6
:1022D0008091DC018F7080618093DC01F901E4550D
:1022E000FE4F80818F708061808387ED91E00E9436
:1022F0007910DF91CF911F910C94F910AF92BF929A
:10230000CF92DF92EF92FF920F931F93CF93DF93C1
:10231000CDB7DEB761970FB6F894DEBF0FBECDBF65
:102320008C0185E0F801DE011D9601900D928A95E1
:10233000E1F7F80140815181E28087EDC82E81E00C
:10234000D82E6091DA017091DB016115710509F4F5
:1023500061C19091D7012091D801892F82238F3FAD
:1023600009F458C1A380B480F090D901F501E61BAF
:10237000F70BFF2009F4FCC08091DC01382F307F7F
:10238000E83CF10508F0B2C0311179C0FE2C2513EC
:1023900023C0941321C0E1101FC08F70806180930F
:1023A000DC010E941A11C6010E9479108091DC01A3
:1023B000F80185838F2D61960FB6F894DEBF0FBEAE
:1023C000CDBFDF91CF911F910F91FF90EF90DF90E4
:1023D000CF90BF90AF900895AB2829F0842F85232C
:1023E0008F3F09F033C180E0F82FF170DF2E80FFBE
:1023F0003CC08091A5012091A60136E0821315C052
:102400004D875E878D859E850E94E215292F229536
:102410002F702230F0F0243018F59F70F1F0F801A1
:102420009581907FD1F4D12C1EC090E0389FF001AF
:10243000399FF00D1124E955FE4F6181651306C0E7
:102440006081641303C062816E110FC001968770B2
:10245000D5CF9F7011F0882331F3805E883018F358
:10246000C8010E947910FD2CA5CFEE2009F4A2CF5F
:102470008091DC0181608093DC01F12C9BCF2513DE
:1024800006C0941304C0F801EE2009F48DC04D87F6
:102490005E878D859E850E94D610882319F1EE20D7
:1024A00009F18091DC01803270F02091D7013091E8
:1024B000D80138872F831986BB86AA868C87CE01E0
:1024C00007960E94791086E0F801A7EDB1E001902F
:1024D0000D928A95E1F70E9428110E941A11FF249B
:1024E000F39468CFC8010E947910F9CF311113C05D
:1024F0007A2DB98AA88A6E2D89890E94DA1087ED13
:1025000091E00E94791086E0F60111928A95E9F730
:102510000E941A11B2CF25130FC094130DC0E11001
:102520000BC0F8018583C8010E94791086E0F6018E
:1025300011928A95E9F73ECF4D875E878D859E85FE
:102540000E94D610882371F2EE2061F28091DC01A6
:10255000803208F4B8CF2091D7013091D8013A8366
:1025600029831B82BD82AC828E83CE010196A9CFC6
:10257000E83CF10508F041C0FE2CEE2009F4B2CF92
:1025800025132AC0941328C08091DC0180FD1BC054
:10259000982F907FC1F0F8018583903F31F0982FFC
:1025A000907F905F8F70892B8583C8010E9479107E
:1025B00086E0F801A7EDB1E001900D928A95E1F770
:1025C0000E941A11F7CE86E0F801A7EDB1E0019064
:1025D0000D928A95E1F7EECE4D875E878D859E85BB
:1025E0000E94D61081116FCF8091DC0181608093B1
:1025F000DC01C8010E947910DDCE7A2DB98AA88A43
:102600006E2D89890E94DA1086E0F60111928A9572
:10261000E9F7D6CFEE2009F465CF4D875E878D852B
:102620009E850E94D610F82E882309F45BCF86E0A1
:10263000F801A7EDB1E001900D928A95E1F787EDE1
:1026400091E00E94BB0D0E942811BACF81E08E2537
:10265000CBCE88EC90E008951F93CF93DF93CDB756
:10266000DEB72C970FB6F894DEBF0FBECDBF4F83F9
:10267000588769877A878B879C87CE0107960E9447
:102680007E11882369F08A859B85892B39F04F81DB
:102690005885842F85238F3F09F071C016E05FC0F5
:1026A00086E0FE013796DE01119601900D928A9523
:1026B000E1F78A859B85892B89F38F81988589230A
:1026C0008F3F61F32091A60130E0C9010196877028
:1026D00099274091A5014817190671F40E94B3107B
:1026E0001092A6011092A50186E0E7EDF1E0DF016E
:1026F0001D928A95E9F7D2CF96E0929FD001939FE1
:10270000B00D1124A955BE4FFE01319601900D92D6
:102710009A95E1F78093A6010E94F910BFCF819F9F
:10272000C001112489559E4F0E947E118823E9F033
:10273000E091A5011E9FF0011124E955FE4F408153
:10274000518162817381848195810E94E910809119
:10275000A50190E00196877099278093A50180914B
:10276000A5019091A6018913DACF2C960FB6F894A3
:10277000DEBF0FBECDBFDF91CF911F910895698558
:102780007A858B859C850E94E91088CFEF92FF9215
:102790000F931F93CF93DF938C01892B81F0F12C42
:1027A000EE24E394E8012196F8018491843770F4D3
:1027B000843008F05FC08130B1F08230A1F1DF9148
:1027C000CF911F910F91FF90EF900895853709F4F5
:1027D0004CC008F43DC09CE7980F903780F78F7786
:1027E0000E940B0E49C00E5F1F4FFE01849190E2C4
:1027F000980F983060F48770FE2D01C0FF0F8A9506
:10280000EAF78F2F0E9458160E94811602C00E947C
:10281000C00D8F2D815030F2EFE9FFE03197F1F7D5
:1028200000C00000F7CF0E5F1F4FFE01849190E2C1
:10283000980F983050F48770FE2D01C0FF0F8A95D5
:10284000EAF78F2F0E945E16DFCF0E940B0EE1CFBA
:102850000E5F1F4FFE01C491C150D8F28FE99FE077
:102860000197F1F700C00000F7CF0E5F1F4FFE0188
:10287000F490CFCF0E94C00D8E01CBCF08950C9461
:102880003E140E943F146093FF01709300028093F6
:102890000102909302020C94A11008950C9441142B
:1028A0000F931F930091FF011091000220910102EC
:1028B00030910202602B712B822B932B1F910F9171
:1028C0000C9441140F931F930091FF01109100028B
:1028D000209101023091020260237123822393230D
:1028E0001F910F910C9441140F931F930091FF01BE
:1028F000109100022091010230910202602771279D
:10290000822793271F910F910C9441140C943E142D
:102910000C9486140E9488146093FB017093FC0150
:102920008093FD019093FE010C94A11060E070E093
:10293000CB010C948A140F931F9341E050E060E0A8
:1029400070E08A019B0104C0000F111F221F331F7A
:102950008A95D2F7C901B8011F910F910C948A147E
:102960000F931F9341E050E060E070E004C0440F1B
:10297000551F661F771F8A95D2F78091FB019091B2
:10298000FC01A091FD01B091FE018A019B01082B81
:10299000192B2A2B3B2BC901B8011F910F910C94C5
:1029A0008A140F931F9341E050E060E070E004C090
:1029B000440F551F661F771F8A95D2F7CB01BA01C6
:1029C00060957095809590950091FB011091FC01A8
:1029D0002091FD013091FE01602371238223932316
:1029E0001F910F910C948A140F931F9341E050E0B4
:1029F00060E070E004C0440F551F661F771F8A9582
:102A0000D2F78091FB019091FC01A091FD01B09162
:102A1000FE018A019B01082719272A273B27C901A4
:102A2000B8011F910F910C948A140F931F9300917A
:102A3000FB011091FC012091FD013091FE01602B02
:102A4000712B822B932B1F910F910C948A140F934F
:102A50001F930091FB011091FC012091FD01309129
:102A6000FE0160237123822393231F910F910C9405
:102A70008A140F931F930091FB011091FC01209188
:102A8000FD013091FE0160277127822793271F9156
:102A90000F910C948A1408952CE0929F800D1124BC
:102AA000982F977041E001C0440F9A95EAF78695F8
:102AB0008695869595E0899FF0011124E352FE4F9B
:102AC00090E080E070E05191DF0111979B01082EAA
:102AD00002C0369527950A94E2F7217021952527A3
:102AE000242325272C9301968530910561F70895BD
:102AF0002CE0929F800D1124982F977086958695D3
:102B0000869525E0829FF0011124E352FE4F50E0AC
:102B100040E080E0219130E0092E02C036952795F3
:102B20000A94E2F721703327042E01C0220F0A9481
:102B3000EAF7822B4F5F5F4F4530510559F70895F3
:102B4000BF92CF92DF92EF92FF920F931F93CF939A
:102B5000DF938C01C090FB01D090FC01E090FD015F
:102B6000F090FE018091FF0190910002A09101027E
:102B7000B0910202C82AD92AEA2AFB2ACFE1D0E082
:102B8000BC2ED701C6010C2E04C0B695A79597950B
:102B900087950A94D2F780FD0EC0219788F7B12C53
:102BA0008B2DDF91CF911F910F91FF90EF90DF90D0
:102BB000CF90BF900895B8018C2F0E944C040197CC
:102BC00061F3EECFCF93DF93EC010E94A015BE011D
:102BD000DF91CF910C944C041F93CF93DF93EB01C3
:102BE0009091A401992331F0CB01DF91CF911F91F6
:102BF0000C94E215882379F0CB010E94A015182FC0
:102C0000682FCE010E944C15BE01812FDF91CF911C
:102C10001F910C944C04CB010E947815182FF4CF0F
:102C2000682F80910001909101010C942918682F60
:102C300080910001909101010C9434188091000161
:102C4000909101010C943F18809103028595859520
:102C500085950895809103028770089590910302ED
:102C6000977081E009F480E008958091270208952B
:102C700090912702892B8093270208958095909147
:102C8000270298239093270208951092270208950F
:102C900090912602892B8093260208958095909129
:102CA00026029823909326020895109226020895F2
:102CB00090912502892B809325020895809590910B
:102CC00025029823909325020895109225020895D5
:102CD00080910402089508950C946B16909104025B
:102CE000981721F0809304020C946C16089580913B
:102CF0000402882329F01092040280E00C946C16E0
:102D00000895E0910001F0910101809127028083F4
:102D1000E0910001F0910101808190912602892BC0
:102D20008083E0910001F091010180819091250262
:102D3000892B808390910402992381F0E091000116
:102D4000F09101018081892B808380910001909115
:102D500001010E94951781110E9477168091000150
:102D6000909101010C94790C08950C94B41698E09C
:102D7000899F90011124622B609303020E94B0147A
:102D8000809103028595859585950C94B5161092D2
:102D9000030280E00C94B51690910302809589237C
:102DA00080930302282F277071F4282F082E000C1F
:102DB000330B9217130639F08595859585950E94FA
:102DC000D1140C94C71608956FEF7FEF90E080E068
:102DD0000C94A32190E080E00E947F2121E08C3EB2
:102DE0009E4F09F020E0822F089582E090E00C943D
:102DF000772183E090E00C947721CF9384E090E0FA
:102E00000E947721C82F81E290E00E947721982FBD
:102E10008C2FCF910895CF93C92F682F84E090E035
:102E20000E9485216C2F81E290E0CF910C94852146
:102E3000AB01BC018FE090E00C949721AB01BC0189
:102E400083E190E00C94972160E070E0CB010C945A
:102E50001E1760E070E0CB010E9418170C94241735
:102E60006CEE7EEF90E080E00E94A32160E082E0C3
:102E700090E00E94852160E083E090E00E9485213F
:102E80001092FF01109200021092010210920202B1
:102E900060E084E090E00E94852160E081E290E0C3
:102EA0000E94852160E085E090E00E94852160E03D
:102EB00086E090E00E9485216FEF87E090E00E941D
:102EC000852140E050E0BA0188E090E00E9497211F
:102ED00060E08DE090E00E94852140E050E0BA0182
:102EE00088E190E00E94972160E087E190E00E94F5
:102EF000852140E050E0BA018CE190E00E949721EA
:102F000060E080E290E00E94852140E050E0BA015C
:102F100088E190E00E9497210C9429170C943017B7
:102F2000682F8EE090E00C948521FC013296809110
:102F30000C01882321F0809161029EE187FF96E0D9
:102F400080E0915008F4089521912223D1F38F5FFE
:102F5000F8CF662301F120910C012223F1F020919A
:102F6000610227FF1AC0462F4695469546954E3179
:102F700090F4677021E030E002C0220F331F6A95A1
:102F8000E2F7840F911DFC01828190E02823392310
:102F900081E0232B69F480E00895FC0132960896C5
:102FA0002191261721F0E817F907D1F7F4CF81E036
:102FB00008959C01FC0132969FEF80E041914617F5
:102FC00051F09F3F19F4411101C0982F8F5F863057
:102FD000A9F79F3F09F40895290F311D97FD3A95F0
:102FE000F90162830895FC01329608962191261317
:102FF00003C0DF0111971C92E817F907B9F708958C
:10300000E62FE695E695E695EE3168F4E80FF92FA0
:10301000F11D677021E030E001C0220F6A95EAF7E8
:103020008281822B82830895E62FE695E695E695C8
:10303000EE3170F4E80FF92FF11D677021E030E0F8
:1030400001C0220F6A95EAF7209582812823228306
:10305000089520910C01222329F02091610227FD7F
:103060000C9400180C94D91720910C01222329F0FC
:103070002091610227FD0C9414180C94F317FC01A5
:10308000329680910C01882351F08091610287FF74
:1030900006C08EE1DF011D928A95E9F7089586E06A
:1030A000F9CF089508950C9452180E9453188091F6
:1030B0006702843049F11092290288E190E020E40F
:1030C0000FB6F894A895809360000FBE209360001F
:1030D00080E00E9438040E94531883B7817F846087
:1030E00083BF83B7816083BF7894889583B78E7FD1
:1030F00083BF0FB6F894A895809160008861809393
:103100006000109260000FBE08950895CF930E9452
:1031100051180E949B060E948518C0E08C2F0E94C7
:103120003806892B31F4CF5FC430C1F780E0CF91EE
:10313000089581E0FCCF08950C949B180E94B31071
:103140000E946D0C0E9438040C949C181F921FB6AC
:103150001F9211248F939F93AF93BF938091290265
:10316000811113C080915D0290915E02A0915F0277
:10317000B09160024196A11DB11D80935D029093B4
:103180005E02A0935F02B0936002BF91AF919F91E6
:103190008F911F901FBE1F90189582E084BD93E011
:1031A00095BD9AEF97BD80936E0008952FB7F89460
:1031B00080915D0290915E02A0915F02B0916002E9
:1031C0002FBF08952FB7F89460915D0270915E0251
:1031D00080915F02909160022FBF08959C014FB7CC
:1031E000F89480915D0290915E02A0915F02B0918F
:1031F00060024FBF821B930B089578941F921FB6F5
:103200001F9211248F939F93AF93BF9380915D0280
:1032100090915E02A0915F02B09160020196A11DA3
:10322000B11D80935D0290935E02A0935F02B09304
:103230006002BF91AF919F918F911F901FBE1F9011
:10324000189587E797E7909301088093000888E135
:103250009AE00FB6F894A895809360000FBE909303
:103260006000FFCF0C9484070E949B062FEF86E737
:1032700091E0215080409040E1F700C000000E94A2
:103280009B0680E00E94380680FF04C00E9432192D
:103290000C94211908950E94EA16811102C00E941F
:1032A0008E170E94F516809328020E94FD169093B7
:1032B0006202809361020E94F916682F70E090E02C
:1032C00080E00E944E146091FB017091FC0180919E
:1032D000FD019091FE010C9488140F931F9341E01F
:1032E00050E060E070E08A019B0104C0000F111FF4
:1032F000221F331F8A95D2F7C901B8010E944E14CC
:103300001F910F910C94B310EBEFE80FEF3308F01F
:103310005AC0F0E0E451FE4D0C946A210E948E17D1
:1033200081E0089580912802807F8093280281E0C7
:1033300080932A0208950E94E003F2CF9091280220
:10334000892F8E7F90FF81608093280280FDE8CFD7
:10335000817F80932802E4CF90912802892F8D7F6E
:1033600091FF82608093280281FFDACF809128024A
:103370008160EFCF90912802892F8B7F92FF84602C
:103380008093280282FDF2CFCBCF90912802892F23
:10339000877F93FF88608093280283FDE7CFC0CFAB
:1033A0000E94B31090916102892F97FB87F9805892
:1033B00080936102B5CF80E00E946D19B1CF89532F
:1033C000FBCF8D51F9CF80E0089580E008950C94F3
:1033D000E519CF93C82F80912A02882331F08130DC
:1033E00099F010922A0280E00DC00E9435168232B8
:1033F000D1F78C2F0E94E519811116C08C2F0E94E5
:1034000084198170CF9108950E943516823289F314
:103410008C2F0E94E719811105C0C43171F038F476
:10342000CB3079F781E0EDCF81E090E0EACFC9328F
:1034300021F0C833B9F380E0E4CF10922A02FBCF29
:1034400080914B0208950895CF93DF9300D00F929F
:10345000CDB7DEB790916702943011F589837B83F5
:103460006A839093E9008FEF9091E800815095FD79
:1034700006C095ED9A95F1F700008111F5CF809186
:10348000E80085FF0DC050E040E063E070E0CE0151
:1034900001960E948A1C8091E8008E778093E80054
:1034A0000F900F900F90DF91CF910895BC0184E0B1
:1034B0000C94241ABC0183E00C94241ACF93DF935C
:1034C000EC0180910C018823B1F18091610287FFAA
:1034D00032C060E284E08093E9008FEF9091E800D1
:1034E000815095FD06C095ED9A95F1F70000811188
:1034F000F5CF8091E80085FF1BC080910C0170E042
:1035000050E040E0811104C050E040E068E070E02D
:10351000CE010E948A1C8091E8008E778093E8009B
:1035200080E2FE01ABE2B2E001900D928A95E1F7F4
:10353000DF91CF91089568E081E0CDCFCF93FC017A
:10354000603221F580916702843001F5C091E90075
:10355000CF702091EC00922F917020FD90E8C92B44
:1035600082E08093E9008091E80080FF0CC050E089
:1035700040E060E270E0CF010E948A1C8091E80088
:103580008E778093E800CF70C093E900CF910895C3
:1035900080916602811109C00E94691E0E94C61EA8
:1035A0008091E20084608093E200089510926602A8
:1035B0000895089508950C949E1842E061EC81E00E
:1035C0000E94E51D42E261EC84E00E94E51D42E2BA
:1035D00061EC82E00E94E51D42E260EC83E00C9425
:1035E000E51D80916902833009F461C030F48130B7
:1035F000D1F1823009F49DC008958A3009F489C060
:103600008B3009F46FC0893009F050C08091680296
:10361000813209F04BC080916C0290916D0200974D
:1036200019F0029709F042C08091E800877F8093EB
:10363000E8008091E80082FF35C09091F30080910E
:10364000F200029729F48091F1008B7F813021F400
:103650008091F10080934B028091E8008B778093FA
:10366000E8000C94191E80916802813AF9F4809167
:10367000E800877F8093E80080916C0290916D0252
:10368000892B61F460E28BE292E070E00E94281DD9
:103690008091E8008B778093E800089560E090E0E7
:1036A00080E0F3CF809167028111C3CF08958091AC
:1036B0006802813AD9F780916C0290916D02892B52
:1036C000A9F78091E800877F8093E8008091E80067
:1036D00080FFFCCF80910C018093F1008091E80085
:1036E0008E77BDCF80916802813201F780916C02A4
:1036F00090916D02892BD1F68091E800877F8093AD
:10370000E8000E94191E80916A0280930C010C94BB
:10371000B31080916802813249F68091E800877F7A
:103720008093E8000E94191E80916B0280934C02E6
:10373000089580916802813A09F0B8CF8091E8003D
:10374000877F8093E8008091E80080FFFCCF809124
:103750004C02C2CFCDB7DEB7A0970FB6F894DEBF4C
:103760000FBECDBF84B7877F84BF0FB6F894A895EE
:1037700080916000886180936000109260000FBEAD
:1037800080E890E00FB6F894809361009093610018
:103790000FBE0E94CD0C0E94691E0E94C61E809121
:1037A000E20084608093E20078940E944F210E949E
:1037B000D90C82E091E00E94680C13E080916702CE
:1037C000853059F00E94E30C80916702843091F0BB
:1037D0000E94D70C0E94D80CF1CF0E9455188091FE
:1037E0006502882359F30E948618882339F30E94C2
:1037F000741CE4CF1093E9008091E80082FFE8CFC9
:103800008091E80090E085FF09C050E040E060E270
:1038100070E0CE0101960E94D91C91E08091E800F1
:103820008B778093E800992399F260E2CE010196AC
:103830000E94E607CDCF0C941D1C292F332723307F
:10384000310521F168F42130310509F443C02230FB
:10385000310509F444C090E080E030E020E026C06B
:103860002132310551F122323105A9F7633071055A
:1038700090F7FB01EE0FFF1FEE57FE4F20813181C5
:1038800061587E4FFB01808190E010C09927813004
:10389000910581F0009729F00297E9F6ECECF2E04F
:1038A00002C0EAEFF2E0849190E09F01FA013183D7
:1038B00020830895E2EEF2E0F6CF6330710558F60A
:1038C000660F771FFB01E857FE4F2081318189E0A9
:1038D00090E0ECCF82E190E029E533E0E7CF8BE5A3
:1038E00090E02EEF32E0E2CF80E189BD82E189BD38
:1038F00009B400FEFDCF8091D8008F7D8093D80061
:103900008091E00082608093E0008091E00081FD82
:10391000FCCF0895AF92BF92CF92DF92FF920F93A8
:103920001F93CF93DF936C01EB018A010E94381E35
:10393000F82E811123C00115110539F0F80180819D
:103940009181C81BD90BC80ED91EB12CA12C209770
:10395000A9F08091E80085FD22C08091E8008E7773
:103960008093E80001151105A1F0F8018081918193
:10397000A80EB91EB182A08285E0F82E8F2DDF91AE
:10398000CF911F910F91FF90DF90CF90BF90AF909C
:1039900008950E94381E8823D1F2F82EEFCFF60149
:1039A00081916F018093F1002197FFEFAF1ABF0A59
:1039B000CECFAF92BF92CF92DF92FF920F931F9321
:1039C000CF93DF936C01EB018A010E94381EF82E21
:1039D000811123C00115110539F0F8018081918111
:1039E000C81BD90BC80ED91EB12CA12C2097A9F049
:1039F0008091E80085FD22C08091E8008B7780935C
:103A0000E80001151105A1F0F80180819181A80E4F
:103A1000B91EB182A08285E0F82E8F2DDF91CF9163
:103A20001F910F91FF90DF90CF90BF90AF900895BE
:103A30000E94381E8823D1F2F82EEFCF8091F1003A
:103A4000F60181936F012197FFEFAF1ABF0ACECF26
:103A5000FC0180916E0290916F0286179707A0F08B
:103A60006115710529F49091E8009E779093E80024
:103A700090E06115710551F4911108C08091E80042
:103A800082FF34C080E00895BC01F2CF80916702CC
:103A90008823C1F18530C1F18091E80083FD30C0F9
:103AA0008091E80082FDEACF8091E80080FFE1CFBD
:103AB0008091F3002091F200382F6115710519F003
:103AC0002830310558F091E02830310509F090E0B8
:103AD0002091E8002E772093E800CBCF819180934E
:103AE000F100615071092F5F3F4FE7CF809167026E
:103AF000882341F0853041F08091E80083FFBECFFC
:103B000081E0089582E0089583E00895FC018091AA
:103B10006E0290916F0286179707A0F061157105EC
:103B200029F48091E8008E778093E80090E0611599
:103B3000710551F4911108C08091E80082FF35C0F1
:103B400080E00895BC01F2CF809167028823C9F11B
:103B50008530C9F18091E80083FD31C08091E80093
:103B600082FDEACF8091E80080FFE1CF8091F300F1
:103B70002091F200382F6115710519F028303105B8
:103B800058F091E02830310509F090E08091E8008C
:103B90008E778093E800CBCF84918093F1003196AB
:103BA000615071092F5F3F4FE6CF809167028823F4
:103BB00041F0853041F08091E80083FFBDCF81E086
:103BC000089582E0089583E00895982F973028F0B3
:103BD0008F708093E90081E008959093E900242F8D
:103BE000762F50E0981731F07091EC002091ED00A5
:103BF0005091F00021FD02C09F5FE8CF3091EB00B3
:103C00003E7F3093EB003091ED003D7F3093ED002F
:103C10003091EB0031603093EB007093EC00209317
:103C2000ED005093F0002091EE0027FDE5CF80E0FD
:103C300008958091680287FF13C08091E80082FF99
:103C400006C08091E8008B778093E80004C08091E3
:103C500067028111F2CF0895809167028823D9F31A
:103C60008091E80080FFF8CF8091E8008E77ECCF5C
:103C70002091E4003091E50095E6A9012091EC0047
:103C8000822F817020FF06C08091E80080FF06C06F
:103C900080E008952091E80022FD1AC0809167021B
:103CA000882389F0853089F08091EB0085FD0FC075
:103CB0002091E4003091E50042175307F9F291504A
:103CC000E1F684E0089582E0089583E0089581E0BC
:103CD00008950E94D71E0E94DF1EE0EEF0E0808172
:103CE00081608083E8EDF0E080818F77808319BC6C
:103CF000A7EDB0E08C918E7F8C9380818F7E808346
:103D00001092660208950F931F93CF93DF930E9442
:103D1000D71E0E94DF1EC8EDD0E088818F77888390
:103D200088818068888388818F7D888319BC109200
:103D3000670210926302109265021092640200EE14
:103D400010E0F80180818B7F808388818160888387
:103D500042E060E080E00E94E51DE1EEF0E080815D
:103D60008E7F8083E2EEF0E08081816080838081BD
:103D700088608083F80180818E7F80838881806164
:103D80008883DF91CF911F910F910895E8EDF0E0C6
:103D900080818F7E8083E7EDF0E080818160808389
:103DA00084E082BF81E0809366020C94831EE8ED7C
:103DB000F0E080818E7F80831092E200089510925F
:103DC000DA001092E10008951F920F920FB60F9241
:103DD00011242F933F934F935F936F937F938F9310
:103DE0009F93AF93BF93EF93FF938091E10082FF86
:103DF0000BC08091E20082FF07C08091E1008B7FC1
:103E00008093E1000E944E218091DA0080FF19C06A
:103E10008091D80080FF15C08091DA008E7F80935A
:103E2000DA008091D90080FF96C080E189BD82E1EF
:103E300089BD09B400FEFDCF81E0809367020E9436
:103E4000C81A8091E10080FF19C08091E20080FFD4
:103E500015C08091E2008E7F8093E2008091E200A5
:103E600080618093E2008091D80080628093D800C6
:103E700019BC85E0809367020E94DA1A8091E10004
:103E800084FF2BC08091E20084FF27C080E189BDC0
:103E900082E189BD89B5982F917080FFFBCF809119
:103EA000D8008F7D8093D8008091E1008F7E809331
:103EB000E1008091E2008F7E8093E2008091E20039
:103EC00081608093E20080916302882309F449C0F5
:103ED00084E0809367020E94DB1A8091E10083FFF7
:103EE00029C08091E20083FF25C08091E100877F97
:103EF0008093E10082E080936702109263028091D8
:103F0000E1008E7F8093E1008091E2008E7F8093BC
:103F1000E2008091E20080618093E20042E060E094
:103F200080E00E94E51D8091F00088608093F000A1
:103F30000E94D91AFF91EF91BF91AF919F918F91FC
:103F40007F916F915F914F913F912F910F900FBE95
:103F50000F901F90189519BC109267020E94D61AF4
:103F600070CF8091E30087FD93E090936702B3CF19
:103F70001F920F920FB60F9211242F933F934F93DE
:103F80005F936F937F938F939F93AF93BF93CF93E1
:103F9000DF93EF93FF93D091E900DF708091EC0005
:103FA000C82FC17080FDC0E81092E9008091F00038
:103FB000877F8093F00078940E94FC1F1092E900A4
:103FC0008091F00088608093F000CD2BCF70C0937B
:103FD000E900FF91EF91DF91CF91BF91AF919F9158
:103FE0008F917F916F915F914F913F912F910F90A2
:103FF0000FBE0F901F9018951F93CF93DF93CDB7EF
:10400000DEB7AA970FB6F894DEBF0FBECDBF88E625
:1040100092E02091F100FC012193CF01F2E0803782
:104020009F07B9F70E94F11A8091E80083FF1EC133
:1040300080916802909169029A3008F017C1E92FC7
:10404000F0E0E55DFD4D0C946A21803899F08238EE
:1040500009F00CC180916C028F70873008F006C1A6
:104060008093E9008091EB0085FB882780F910920E
:10407000E90006C08091640290916502911182600E
:104080009091E800977F9093E8008093F100109260
:10409000F1008091E8008E77E5C0882309F4D3C051
:1040A000823009F0E3C080916A028111D6C080910C
:1040B0006C028F702FEF280F263008F0D7C0809346
:1040C000E9002091EB0020FFC8C0933031F48091CB
:1040D000EB0080628093EB00C0C09091EB00906198
:1040E0009093EB0021E030E001C0220F8A95EAF7BF
:1040F0002093EA001092EA008091EB008860EACFFA
:104100008111B4C010916A021F778091E30080781A
:10411000812B8093E3008091E800877F8093E80003
:104120000E94191E8091E80080FFFCCF8091E3007F
:1041300080688093E30082E0111183E0809367023E
:1041400095C08058823008F091C080916A029091A9
:104150006B028C3D23E09207A1F583E08A838AE21B
:1041600089834FB7F894DE01139620E03EE051E2D8
:10417000E32FF0E050935700E49120FF03C0E29555
:10418000EF703F5FEF708E2F90E0EA30C0F0C7967F
:104190008D939D932F5F243159F74FBF8091E80095
:1041A000877F8093E8006AE270E0CE0101960E946A
:1041B000281D8091E8008B778093E80057C0C09657
:1041C000E7CF60916C0270916D02AE014F5F5F4F5F
:1041D0000E941B1CBC01892B09F448C09091E80087
:1041E000977F9093E80089819A810E94861DE1CF94
:1041F0008038E1F58091E800877F8093E800809126
:1042000063028093F10045CF811130C090916A0222
:10421000923060F58091E800877F8093E80090936A
:1042200063020E94191E80916302882311F084E0CA
:1042300005C08091E30087FDFACF81E0809367029B
:104240000E94DD1A13C080916A02813079F481E006
:10425000933009F080E0809365021092E90080912C
:10426000E800877F8093E8000E94191E8091E80093
:1042700083FF0AC08091E800877F8093E8008091E7
:10428000EB0080628093EB00AA960FB6F894DEBF35
:104290000FBECDBFDF91CF911F9108950895CF93A9
:1042A000809167028823A1F0C091E900CF709091BE
:1042B000EC00892F817090FD80E8C82B1092E900F6
:1042C0008091E80083FD0E94FC1FCF70C093E9003D
:1042D000CF910895EE0FFF1F0590F491E02D099402
:1042E0006927962769277827872778270895F999D6
:1042F000FECF92BD81BDF89A992780B50895A8E1B7
:10430000B0E042E050E00C94AB21262FF999FECFAB
:1043100092BD81BDF89A019700B4021639F01FBA18
:1043200020BD0FB6F894FA9AF99A0FBE0895039635
:10433000272F0E9486210E948521252F0E948621F9
:10434000242F0C9486210196272F0E9486210C94FD
:104350008521DC01CB01FC01F999FECF06C0F2BD3D
:10436000E1BDF89A319600B40D9241505040B8F733
:104370000895F894FFCFF80705082C08380843087B
:104380004E085108510851089A089D0854085808C9
:1043900060086D087A087D0880088D088B0E8B0EEA
:1043A000E30EE30E350FB80EB80EB80E510FDD0F49
:1043B000EC0FEC0F4810B80EB80E5110C210C2101E
:1043C000CB10CB10CD10CB10CB10CB10C210C21025
:1043D000D210CB10CB10D2109B1992199E199019A4
:1043E000E319E3199019E319E319BA19E319C51987
:1043F000D019E319E319E319E3199019E319E31943
:104400009019E319AC19E319E319E119E119E1195C
:10441000E119E119E119E119E119E119DB19E319D0
:104420009B198E19E319E319E319E319E319E31949
:10443000E319E319E319E319DB19E319E3199019F7
:10444000E319DF19DF19DF19DF19DF19DF19DF19A8
:10445000DF19DF19DB1925204D2036214D203621AB
:0A4460008020A1203621F82004215D
:10446A000502201A5E1A231A5A1A561A01E200E99C
:10447A0000EA00B500B600B700CD008301CC008A7F
:10448A000192019401210223022402250226022715
:10449A00022A02B300B4006F007000818283F4F52F
:1044AA00F6F79190946697C6343531333236E20086
:1044BA00E900EA00B500B600B700CD008301CC00E0
:1044CA008A01920194012102230224022502260272
:1044DA0027022A02B300B4006F0070008182834071
:0E44EA00226DFA036B038D03100329034903AF
:00000001FF
